{
  "contractName": "Asignatura",
  "abi": [
    {
      "inputs": [
        {
          "internalType": "string",
          "name": "_nombre",
          "type": "string"
        },
        {
          "internalType": "string",
          "name": "_curso",
          "type": "string"
        }
      ],
      "stateMutability": "nonpayable",
      "type": "constructor"
    },
    {
      "inputs": [
        {
          "internalType": "address",
          "name": "",
          "type": "address"
        },
        {
          "internalType": "uint256",
          "name": "",
          "type": "uint256"
        }
      ],
      "name": "calificaciones",
      "outputs": [
        {
          "internalType": "enum Asignatura.TipoNota",
          "name": "tipo",
          "type": "uint8"
        },
        {
          "internalType": "uint256",
          "name": "calificacion",
          "type": "uint256"
        }
      ],
      "stateMutability": "view",
      "type": "function",
      "constant": true
    },
    {
      "inputs": [],
      "name": "curso",
      "outputs": [
        {
          "internalType": "string",
          "name": "",
          "type": "string"
        }
      ],
      "stateMutability": "view",
      "type": "function",
      "constant": true
    },
    {
      "inputs": [
        {
          "internalType": "address",
          "name": "",
          "type": "address"
        }
      ],
      "name": "datosAlumno",
      "outputs": [
        {
          "internalType": "string",
          "name": "nombre",
          "type": "string"
        },
        {
          "internalType": "string",
          "name": "email",
          "type": "string"
        }
      ],
      "stateMutability": "view",
      "type": "function",
      "constant": true
    },
    {
      "inputs": [
        {
          "internalType": "uint256",
          "name": "",
          "type": "uint256"
        }
      ],
      "name": "evaluaciones",
      "outputs": [
        {
          "internalType": "string",
          "name": "nombre",
          "type": "string"
        },
        {
          "internalType": "uint256",
          "name": "fecha",
          "type": "uint256"
        },
        {
          "internalType": "uint256",
          "name": "porcentaje",
          "type": "uint256"
        }
      ],
      "stateMutability": "view",
      "type": "function",
      "constant": true
    },
    {
      "inputs": [
        {
          "internalType": "uint256",
          "name": "",
          "type": "uint256"
        }
      ],
      "name": "matriculas",
      "outputs": [
        {
          "internalType": "address",
          "name": "",
          "type": "address"
        }
      ],
      "stateMutability": "view",
      "type": "function",
      "constant": true
    },
    {
      "inputs": [],
      "name": "nombre",
      "outputs": [
        {
          "internalType": "string",
          "name": "",
          "type": "string"
        }
      ],
      "stateMutability": "view",
      "type": "function",
      "constant": true
    },
    {
      "inputs": [],
      "name": "profesor",
      "outputs": [
        {
          "internalType": "address",
          "name": "",
          "type": "address"
        }
      ],
      "stateMutability": "view",
      "type": "function",
      "constant": true
    },
    {
      "inputs": [],
      "name": "version",
      "outputs": [
        {
          "internalType": "string",
          "name": "",
          "type": "string"
        }
      ],
      "stateMutability": "view",
      "type": "function",
      "constant": true
    },
    {
      "stateMutability": "payable",
      "type": "receive",
      "payable": true
    },
    {
      "inputs": [
        {
          "internalType": "string",
          "name": "_nombre",
          "type": "string"
        },
        {
          "internalType": "string",
          "name": "_email",
          "type": "string"
        }
      ],
      "name": "automatricula",
      "outputs": [],
      "stateMutability": "nonpayable",
      "type": "function"
    },
    {
      "inputs": [],
      "name": "matriculasLength",
      "outputs": [
        {
          "internalType": "uint256",
          "name": "",
          "type": "uint256"
        }
      ],
      "stateMutability": "view",
      "type": "function",
      "constant": true
    },
    {
      "inputs": [],
      "name": "quienSoy",
      "outputs": [
        {
          "internalType": "string",
          "name": "_nombre",
          "type": "string"
        },
        {
          "internalType": "string",
          "name": "_email",
          "type": "string"
        }
      ],
      "stateMutability": "view",
      "type": "function",
      "constant": true
    },
    {
      "inputs": [
        {
          "internalType": "string",
          "name": "_nombre",
          "type": "string"
        },
        {
          "internalType": "uint256",
          "name": "_fecha",
          "type": "uint256"
        },
        {
          "internalType": "uint256",
          "name": "_porcentaje",
          "type": "uint256"
        }
      ],
      "name": "creaEvaluacion",
      "outputs": [
        {
          "internalType": "uint256",
          "name": "",
          "type": "uint256"
        }
      ],
      "stateMutability": "nonpayable",
      "type": "function"
    },
    {
      "inputs": [],
      "name": "evaluacionesLength",
      "outputs": [
        {
          "internalType": "uint256",
          "name": "",
          "type": "uint256"
        }
      ],
      "stateMutability": "view",
      "type": "function",
      "constant": true
    },
    {
      "inputs": [
        {
          "internalType": "address",
          "name": "alumno",
          "type": "address"
        },
        {
          "internalType": "uint256",
          "name": "evaluacion",
          "type": "uint256"
        },
        {
          "internalType": "enum Asignatura.TipoNota",
          "name": "tipo",
          "type": "uint8"
        },
        {
          "internalType": "uint256",
          "name": "calificacion",
          "type": "uint256"
        }
      ],
      "name": "califica",
      "outputs": [],
      "stateMutability": "nonpayable",
      "type": "function"
    },
    {
      "inputs": [
        {
          "internalType": "uint256",
          "name": "evaluacion",
          "type": "uint256"
        }
      ],
      "name": "miNota",
      "outputs": [
        {
          "internalType": "enum Asignatura.TipoNota",
          "name": "tipo",
          "type": "uint8"
        },
        {
          "internalType": "uint256",
          "name": "calificacion",
          "type": "uint256"
        }
      ],
      "stateMutability": "view",
      "type": "function",
      "constant": true
    }
  ],
  "bytecode": "0x60806040526040518060400160405280600981526020017f32303232204c6974650000000000000000000000000000000000000000000000815250600090816200004a9190620003f3565b503480156200005857600080fd5b506040516200289b3803806200289b83398181016040528101906200007e91906200063e565b6000825103620000c5576040517f08c379a0000000000000000000000000000000000000000000000000000000008152600401620000bc906200074a565b60405180910390fd5b60008151036200010c576040517f08c379a00000000000000000000000000000000000000000000000000000000081526004016200010390620007e2565b60405180910390fd5b33600160006101000a81548173ffffffffffffffffffffffffffffffffffffffff021916908373ffffffffffffffffffffffffffffffffffffffff16021790555081600290816200015e9190620003f3565b508060039081620001709190620003f3565b50505062000804565b600081519050919050565b7f4e487b7100000000000000000000000000000000000000000000000000000000600052604160045260246000fd5b7f4e487b7100000000000000000000000000000000000000000000000000000000600052602260045260246000fd5b60006002820490506001821680620001fb57607f821691505b602082108103620002115762000210620001b3565b5b50919050565b60008190508160005260206000209050919050565b60006020601f8301049050919050565b600082821b905092915050565b6000600883026200027b7fffffffffffffffffffffffffffffffffffffffffffffffffffffffffffffffff826200023c565b6200028786836200023c565b95508019841693508086168417925050509392505050565b6000819050919050565b6000819050919050565b6000620002d4620002ce620002c8846200029f565b620002a9565b6200029f565b9050919050565b6000819050919050565b620002f083620002b3565b62000308620002ff82620002db565b84845462000249565b825550505050565b600090565b6200031f62000310565b6200032c818484620002e5565b505050565b5b8181101562000354576200034860008262000315565b60018101905062000332565b5050565b601f821115620003a3576200036d8162000217565b62000378846200022c565b8101602085101562000388578190505b620003a062000397856200022c565b83018262000331565b50505b505050565b600082821c905092915050565b6000620003c860001984600802620003a8565b1980831691505092915050565b6000620003e38383620003b5565b9150826002028217905092915050565b620003fe8262000179565b67ffffffffffffffff8111156200041a576200041962000184565b5b620004268254620001e2565b6200043382828562000358565b600060209050601f8311600181146200046b576000841562000456578287015190505b620004628582620003d5565b865550620004d2565b601f1984166200047b8662000217565b60005b82811015620004a5578489015182556001820191506020850194506020810190506200047e565b86831015620004c55784890151620004c1601f891682620003b5565b8355505b6001600288020188555050505b505050505050565b6000604051905090565b600080fd5b600080fd5b600080fd5b600080fd5b6000601f19601f8301169050919050565b6200051482620004f8565b810181811067ffffffffffffffff8211171562000536576200053562000184565b5b80604052505050565b60006200054b620004da565b905062000559828262000509565b919050565b600067ffffffffffffffff8211156200057c576200057b62000184565b5b6200058782620004f8565b9050602081019050919050565b60005b83811015620005b457808201518184015260208101905062000597565b60008484015250505050565b6000620005d7620005d1846200055e565b6200053f565b905082815260208101848484011115620005f657620005f5620004f3565b5b6200060384828562000594565b509392505050565b600082601f830112620006235762000622620004ee565b5b815162000635848260208601620005c0565b91505092915050565b60008060408385031215620006585762000657620004e4565b5b600083015167ffffffffffffffff811115620006795762000678620004e9565b5b62000687858286016200060b565b925050602083015167ffffffffffffffff811115620006ab57620006aa620004e9565b5b620006b9858286016200060b565b9150509250929050565b600082825260208201905092915050565b7f456c206e6f6d627265206465206c6120617369676e6174757261206e6f20707560008201527f6564652073657220766163696f00000000000000000000000000000000000000602082015250565b600062000732602d83620006c3565b91506200073f82620006d4565b604082019050919050565b60006020820190508181036000830152620007658162000723565b9050919050565b7f456c20637572736f2061636164656d69636f206465206c6120617369676e617460008201527f757261206e6f2070756564652073657220766163696f00000000000000000000602082015250565b6000620007ca603683620006c3565b9150620007d7826200076c565b604082019050919050565b60006020820190508181036000830152620007fd81620007bb565b9050919050565b61208780620008146000396000f3fe6080604052600436106100ec5760003560e01c80636bf8aad61161008a578063d017da1f11610059578063d017da1f14610353578063d27c3f3c14610390578063deafcc41146103ce578063df096576146103f95761012c565b80636bf8aad6146102825780639e1d8f4b146102c0578063bc7b35b2146102eb578063c7918139146103165761012c565b8063488cf4f5116100c6578063488cf4f5146101d7578063537668831461020257806354fd4d501461022e57806361d4c6ad146102595761012c565b806330322c9b1461013157806342a6dde21461015a57806344f7a8cc146101985761012c565b3661012c576040517f08c379a000000000000000000000000000000000000000000000000000000000815260040161012390611200565b60405180910390fd5b600080fd5b34801561013d57600080fd5b50610158600480360381019061015391906112ed565b610424565b005b34801561016657600080fd5b50610181600480360381019061017c9190611354565b610648565b60405161018f92919061141a565b60405180910390f35b3480156101a457600080fd5b506101bf60048036038101906101ba9190611443565b610686565b6040516101ce939291906114ef565b60405180910390f35b3480156101e357600080fd5b506101ec610748565b6040516101f9919061152d565b60405180910390f35b34801561020e57600080fd5b50610217610755565b604051610225929190611548565b60405180910390f35b34801561023a57600080fd5b50610243610925565b604051610250919061157f565b60405180910390f35b34801561026557600080fd5b50610280600480360381019061027b91906116d6565b6109b3565b005b34801561028e57600080fd5b506102a960048036038101906102a4919061174e565b610b30565b6040516102b7929190611548565b60405180910390f35b3480156102cc57600080fd5b506102d5610c64565b6040516102e2919061152d565b60405180910390f35b3480156102f757600080fd5b50610300610c71565b60405161030d919061157f565b60405180910390f35b34801561032257600080fd5b5061033d60048036038101906103389190611443565b610cff565b60405161034a919061178a565b60405180910390f35b34801561035f57600080fd5b5061037a600480360381019061037591906117a5565b610d3e565b604051610387919061152d565b60405180910390f35b34801561039c57600080fd5b506103b760048036038101906103b29190611443565b610ea1565b6040516103c592919061141a565b60405180910390f35b3480156103da57600080fd5b506103e3610feb565b6040516103f0919061157f565b60405180910390f35b34801561040557600080fd5b5061040e611079565b60405161041b919061178a565b60405180910390f35b600160009054906101000a900473ffffffffffffffffffffffffffffffffffffffff1673ffffffffffffffffffffffffffffffffffffffff163373ffffffffffffffffffffffffffffffffffffffff16146104b4576040517f08c379a00000000000000000000000000000000000000000000000000000000081526004016104ab90611860565b60405180910390fd5b6104bd8461109f565b6104fc576040517f08c379a00000000000000000000000000000000000000000000000000000000081526004016104f3906118f2565b60405180910390fd5b6006805490508310610543576040517f08c379a000000000000000000000000000000000000000000000000000000000815260040161053a90611984565b60405180910390fd5b6103e8811115610588576040517f08c379a000000000000000000000000000000000000000000000000000000000815260040161057f90611a3c565b60405180910390fd5b600060405180604001604052808460028111156105a8576105a7611394565b5b815260200183815250905080600760008773ffffffffffffffffffffffffffffffffffffffff1673ffffffffffffffffffffffffffffffffffffffff168152602001908152602001600020600086815260200190815260200160002060008201518160000160006101000a81548160ff0219169083600281111561062f5761062e611394565b5b0217905550602082015181600101559050505050505050565b6007602052816000526040600020602052806000526040600020600091509150508060000160009054906101000a900460ff16908060010154905082565b6006818154811061069657600080fd5b90600052602060002090600302016000915090508060000180546106b990611a8b565b80601f01602080910402602001604051908101604052809291908181526020018280546106e590611a8b565b80156107325780601f1061070757610100808354040283529160200191610732565b820191906000526020600020905b81548152906001019060200180831161071557829003601f168201915b5050505050908060010154908060020154905083565b6000600680549050905090565b6060806107613361109f565b6107a0576040517f08c379a000000000000000000000000000000000000000000000000000000000815260040161079790611b2e565b60405180910390fd5b6000600460003373ffffffffffffffffffffffffffffffffffffffff1673ffffffffffffffffffffffffffffffffffffffff1681526020019081526020016000206040518060400160405290816000820180546107fc90611a8b565b80601f016020809104026020016040519081016040528092919081815260200182805461082890611a8b565b80156108755780601f1061084a57610100808354040283529160200191610875565b820191906000526020600020905b81548152906001019060200180831161085857829003601f168201915b5050505050815260200160018201805461088e90611a8b565b80601f01602080910402602001604051908101604052809291908181526020018280546108ba90611a8b565b80156109075780601f106108dc57610100808354040283529160200191610907565b820191906000526020600020905b8154815290600101906020018083116108ea57829003601f168201915b50505050508152505090508060000151925080602001519150509091565b6000805461093290611a8b565b80601f016020809104026020016040519081016040528092919081815260200182805461095e90611a8b565b80156109ab5780601f10610980576101008083540402835291602001916109ab565b820191906000526020600020905b81548152906001019060200180831161098e57829003601f168201915b505050505081565b6109bc3361109f565b156109fc576040517f08c379a00000000000000000000000000000000000000000000000000000000081526004016109f390611bc0565b60405180910390fd5b6000825103610a40576040517f08c379a0000000000000000000000000000000000000000000000000000000008152600401610a3790611c2c565b60405180910390fd5b6000604051806040016040528084815260200183815250905080600460003373ffffffffffffffffffffffffffffffffffffffff1673ffffffffffffffffffffffffffffffffffffffff1681526020019081526020016000206000820151816000019081610aae9190611df8565b506020820151816001019081610ac49190611df8565b509050506005339080600181540180825580915050600190039060005260206000200160009091909190916101000a81548173ffffffffffffffffffffffffffffffffffffffff021916908373ffffffffffffffffffffffffffffffffffffffff160217905550505050565b6004602052806000526040600020600091509050806000018054610b5390611a8b565b80601f0160208091040260200160405190810160405280929190818152602001828054610b7f90611a8b565b8015610bcc5780601f10610ba157610100808354040283529160200191610bcc565b820191906000526020600020905b815481529060010190602001808311610baf57829003601f168201915b505050505090806001018054610be190611a8b565b80601f0160208091040260200160405190810160405280929190818152602001828054610c0d90611a8b565b8015610c5a5780601f10610c2f57610100808354040283529160200191610c5a565b820191906000526020600020905b815481529060010190602001808311610c3d57829003601f168201915b5050505050905082565b6000600580549050905090565b60028054610c7e90611a8b565b80601f0160208091040260200160405190810160405280929190818152602001828054610caa90611a8b565b8015610cf75780601f10610ccc57610100808354040283529160200191610cf7565b820191906000526020600020905b815481529060010190602001808311610cda57829003601f168201915b505050505081565b60058181548110610d0f57600080fd5b906000526020600020016000915054906101000a900473ffffffffffffffffffffffffffffffffffffffff1681565b6000600160009054906101000a900473ffffffffffffffffffffffffffffffffffffffff1673ffffffffffffffffffffffffffffffffffffffff163373ffffffffffffffffffffffffffffffffffffffff1614610dd0576040517f08c379a0000000000000000000000000000000000000000000000000000000008152600401610dc790611860565b60405180910390fd5b6000845103610e14576040517f08c379a0000000000000000000000000000000000000000000000000000000008152600401610e0b90611f3c565b60405180910390fd5b600660405180606001604052808681526020018581526020018481525090806001815401808255809150506001900390600052602060002090600302016000909190919091506000820151816000019081610e6f9190611df8565b50602082015181600101556040820151816002015550506001600680549050610e989190611f8b565b90509392505050565b600080610ead3361109f565b610eec576040517f08c379a0000000000000000000000000000000000000000000000000000000008152600401610ee390611b2e565b60405180910390fd5b6006805490508310610f33576040517f08c379a0000000000000000000000000000000000000000000000000000000008152600401610f2a90612031565b60405180910390fd5b6000600760003373ffffffffffffffffffffffffffffffffffffffff1673ffffffffffffffffffffffffffffffffffffffff16815260200190815260200160002060008581526020019081526020016000206040518060400160405290816000820160009054906101000a900460ff166002811115610fb557610fb4611394565b5b6002811115610fc757610fc6611394565b5b81526020016001820154815250509050806000015192508060200151915050915091565b60038054610ff890611a8b565b80601f016020809104026020016040519081016040528092919081815260200182805461102490611a8b565b80156110715780601f1061104657610100808354040283529160200191611071565b820191906000526020600020905b81548152906001019060200180831161105457829003601f168201915b505050505081565b600160009054906101000a900473ffffffffffffffffffffffffffffffffffffffff1681565b600080600460008473ffffffffffffffffffffffffffffffffffffffff1673ffffffffffffffffffffffffffffffffffffffff16815260200190815260200160002060000180546110ef90611a8b565b80601f016020809104026020016040519081016040528092919081815260200182805461111b90611a8b565b80156111685780601f1061113d57610100808354040283529160200191611168565b820191906000526020600020905b81548152906001019060200180831161114b57829003601f168201915b50505050509050600081511415915050919050565b600082825260208201905092915050565b7f4e6f207365207065726d697465206c6120726563657063696f6e20646520646960008201527f6e65726f2e000000000000000000000000000000000000000000000000000000602082015250565b60006111ea60258361117d565b91506111f58261118e565b604082019050919050565b60006020820190508181036000830152611219816111dd565b9050919050565b6000604051905090565b600080fd5b600080fd5b600073ffffffffffffffffffffffffffffffffffffffff82169050919050565b600061125f82611234565b9050919050565b61126f81611254565b811461127a57600080fd5b50565b60008135905061128c81611266565b92915050565b6000819050919050565b6112a581611292565b81146112b057600080fd5b50565b6000813590506112c28161129c565b92915050565b600381106112d557600080fd5b50565b6000813590506112e7816112c8565b92915050565b600080600080608085870312156113075761130661122a565b5b60006113158782880161127d565b9450506020611326878288016112b3565b9350506040611337878288016112d8565b9250506060611348878288016112b3565b91505092959194509250565b6000806040838503121561136b5761136a61122a565b5b60006113798582860161127d565b925050602061138a858286016112b3565b9150509250929050565b7f4e487b7100000000000000000000000000000000000000000000000000000000600052602160045260246000fd5b600381106113d4576113d3611394565b5b50565b60008190506113e5826113c3565b919050565b60006113f5826113d7565b9050919050565b611405816113ea565b82525050565b61141481611292565b82525050565b600060408201905061142f60008301856113fc565b61143c602083018461140b565b9392505050565b6000602082840312156114595761145861122a565b5b6000611467848285016112b3565b91505092915050565b600081519050919050565b60005b8381101561149957808201518184015260208101905061147e565b60008484015250505050565b6000601f19601f8301169050919050565b60006114c182611470565b6114cb818561117d565b93506114db81856020860161147b565b6114e4816114a5565b840191505092915050565b6000606082019050818103600083015261150981866114b6565b9050611518602083018561140b565b611525604083018461140b565b949350505050565b6000602082019050611542600083018461140b565b92915050565b6000604082019050818103600083015261156281856114b6565b9050818103602083015261157681846114b6565b90509392505050565b6000602082019050818103600083015261159981846114b6565b905092915050565b600080fd5b600080fd5b7f4e487b7100000000000000000000000000000000000000000000000000000000600052604160045260246000fd5b6115e3826114a5565b810181811067ffffffffffffffff82111715611602576116016115ab565b5b80604052505050565b6000611615611220565b905061162182826115da565b919050565b600067ffffffffffffffff821115611641576116406115ab565b5b61164a826114a5565b9050602081019050919050565b82818337600083830152505050565b600061167961167484611626565b61160b565b905082815260208101848484011115611695576116946115a6565b5b6116a0848285611657565b509392505050565b600082601f8301126116bd576116bc6115a1565b5b81356116cd848260208601611666565b91505092915050565b600080604083850312156116ed576116ec61122a565b5b600083013567ffffffffffffffff81111561170b5761170a61122f565b5b611717858286016116a8565b925050602083013567ffffffffffffffff8111156117385761173761122f565b5b611744858286016116a8565b9150509250929050565b6000602082840312156117645761176361122a565b5b60006117728482850161127d565b91505092915050565b61178481611254565b82525050565b600060208201905061179f600083018461177b565b92915050565b6000806000606084860312156117be576117bd61122a565b5b600084013567ffffffffffffffff8111156117dc576117db61122f565b5b6117e8868287016116a8565b93505060206117f9868287016112b3565b925050604061180a868287016112b3565b9150509250925092565b7f536f6c6f207065726d697469646f20616c2070726f6665736f72000000000000600082015250565b600061184a601a8361117d565b915061185582611814565b602082019050919050565b600060208201905081810360008301526118798161183d565b9050919050565b7f536f6c6f2073652070756564656e2063616c696669636172206120756e20616c60008201527f756d6e6f206d6174726963756c61646f2e000000000000000000000000000000602082015250565b60006118dc60318361117d565b91506118e782611880565b604082019050919050565b6000602082019050818103600083015261190b816118cf565b9050919050565b7f4e6f2073652070756564652063616c69666963617220756e61206576616c756160008201527f63696f6e20717565206e6f206578697374652e00000000000000000000000000602082015250565b600061196e60338361117d565b915061197982611912565b604082019050919050565b6000602082019050818103600083015261199d81611961565b9050919050565b7f4e6f2073652070756564652063616c69666963617220636f6e20756e61206e6f60008201527f7461207375706572696f722061206c61206d6178696d61207065726d6974696460208201527f612e000000000000000000000000000000000000000000000000000000000000604082015250565b6000611a2660428361117d565b9150611a31826119a4565b606082019050919050565b60006020820190508181036000830152611a5581611a19565b9050919050565b7f4e487b7100000000000000000000000000000000000000000000000000000000600052602260045260246000fd5b60006002820490506001821680611aa357607f821691505b602082108103611ab657611ab5611a5c565b5b50919050565b7f536f6c6f207065726d697469646f206120616c756d6e6f73206d61747269637560008201527f6c61646f73000000000000000000000000000000000000000000000000000000602082015250565b6000611b1860258361117d565b9150611b2382611abc565b604082019050919050565b60006020820190508181036000830152611b4781611b0b565b9050919050565b7f536f6c6f207065726d697469646f206120616c756d6e6f73206e6f206d61747260008201527f6963756c61646f73000000000000000000000000000000000000000000000000602082015250565b6000611baa60288361117d565b9150611bb582611b4e565b604082019050919050565b60006020820190508181036000830152611bd981611b9d565b9050919050565b7f456c206e6f6d627265206e6f2070756564652073657220766163696f00000000600082015250565b6000611c16601c8361117d565b9150611c2182611be0565b602082019050919050565b60006020820190508181036000830152611c4581611c09565b9050919050565b60008190508160005260206000209050919050565b60006020601f8301049050919050565b600082821b905092915050565b600060088302611cae7fffffffffffffffffffffffffffffffffffffffffffffffffffffffffffffffff82611c71565b611cb88683611c71565b95508019841693508086168417925050509392505050565b6000819050919050565b6000611cf5611cf0611ceb84611292565b611cd0565b611292565b9050919050565b6000819050919050565b611d0f83611cda565b611d23611d1b82611cfc565b848454611c7e565b825550505050565b600090565b611d38611d2b565b611d43818484611d06565b505050565b5b81811015611d6757611d5c600082611d30565b600181019050611d49565b5050565b601f821115611dac57611d7d81611c4c565b611d8684611c61565b81016020851015611d95578190505b611da9611da185611c61565b830182611d48565b50505b505050565b600082821c905092915050565b6000611dcf60001984600802611db1565b1980831691505092915050565b6000611de88383611dbe565b9150826002028217905092915050565b611e0182611470565b67ffffffffffffffff811115611e1a57611e196115ab565b5b611e248254611a8b565b611e2f828285611d6b565b600060209050601f831160018114611e625760008415611e50578287015190505b611e5a8582611ddc565b865550611ec2565b601f198416611e7086611c4c565b60005b82811015611e9857848901518255600182019150602085019450602081019050611e73565b86831015611eb55784890151611eb1601f891682611dbe565b8355505b6001600288020188555050505b505050505050565b7f456c206e6f6d627265206465206c61206576616c756163696f6e206e6f20707560008201527f6564652073657220766163696f00000000000000000000000000000000000000602082015250565b6000611f26602d8361117d565b9150611f3182611eca565b604082019050919050565b60006020820190508181036000830152611f5581611f19565b9050919050565b7f4e487b7100000000000000000000000000000000000000000000000000000000600052601160045260246000fd5b6000611f9682611292565b9150611fa183611292565b9250828203905081811115611fb957611fb8611f5c565b5b92915050565b7f456c20696e64696365206465206c61206576616c756163696f6e206e6f20657860008201527f697374652e000000000000000000000000000000000000000000000000000000602082015250565b600061201b60258361117d565b915061202682611fbf565b604082019050919050565b6000602082019050818103600083015261204a8161200e565b905091905056fea2646970667358221220a1747dc91d3b1560f8d64e247b66cfed4749c4cbf19fdbf9cda034b99c378bd164736f6c63430008110033",
  "immutableReferences": {},
  "source": "// SPDX-License-Identifier: UNLICENSED\r\npragma solidity ^0.8.16;\r\n\r\n/**\r\n *  El contrato Asignatura que representa una asignatura de la carrera.\r\n * \r\n * Version Lite - Practicas\r\n * \r\n * Posibles modificaciones:\r\n *  - Gestionar el limite de los puntos que aporta cada evaluacion.\r\n *  - Puede repetirse el nombre de una evaluacion?\r\n *  - Cambiar algunos uint a uint8 ??\r\n *  - Nota minima en las evaluaciones?\r\n *  - Evaluacion obligatoria u opcional?\r\n *  - Nota final en la asignatura.\r\n *  - Evaluacion continua, final, extraordinaria, ....\r\n *  - Un alumno puede ser el owner, el coordinador o un profesor?\r\n *  - Un profesor si puede ser el coordinador.\r\n */\r\n \r\n contract Asignatura {\r\n\r\n    /// Version 2022 Lite - Teoria\r\n    string public version = \"2022 Lite\";\r\n\r\n    /**\r\n     * address del profesor que ha desplegado el contrato.\r\n     * El contrato lo despliega el profesor.\r\n     */\r\n    address public profesor;\r\n    \r\n    /// Nombre de la asignatura\r\n    string public nombre;\r\n    \r\n    /// Curso academico\r\n    string public curso;\r\n    \r\n    /// Datos de un alumno.\r\n    struct DatosAlumno {\r\n        string nombre;\r\n        string email;\r\n    }\r\n    \r\n    /// Acceder a los datos de un alumno dada su direccion.\r\n    mapping (address => DatosAlumno) public datosAlumno;\r\n    \r\n    // Array con las direcciones de los alumnos matriculados.\r\n    address[] public matriculas;\r\n    \r\n    /**\r\n     * Datos de una evaluacion.\r\n     */\r\n    struct Evaluacion {\r\n        string nombre;\r\n        uint fecha;\r\n        uint porcentaje;\r\n    }\r\n    \r\n    /// Evaluaciones de la asignatura.\r\n    Evaluacion[] public evaluaciones;\r\n        \r\n    /// Tipos de notas: sin usar, no presentado, y nota normal entre 0 y 1000.\r\n    enum TipoNota {Empty, NP, Normal}\r\n    \r\n    /**\r\n     * Datos de una nota.\r\n     * La calificacion esta multiplicada por 100 porque no hay decimales.\r\n     */\r\n    struct Nota {\r\n        TipoNota tipo;\r\n        uint calificacion;\r\n    }\r\n    \r\n    // Dada la direccion de un alumno, y el indice de la evaluacion, devuelve\r\n    // la nota del alumno.\r\n    mapping (address => mapping (uint => Nota)) public calificaciones;\r\n\r\n    \r\n     /**\r\n     * Constructor.\r\n     * \r\n     * @param _nombre Nombre de la asignatura.\r\n     * @param _curso  Curso academico.\r\n     */\r\n    constructor(string memory _nombre, string memory _curso) {\r\n        require(bytes(_nombre).length != 0, \"El nombre de la asignatura no puede ser vacio\");\r\n        require(bytes(_curso).length != 0, \"El curso academico de la asignatura no puede ser vacio\");\r\n      \r\n        profesor = msg.sender;\r\n        nombre = _nombre;\r\n        curso = _curso;\r\n    }\r\n    \r\n    \r\n    /**\r\n     * Los alumnos pueden automatricularse con el metodo automatricula.\r\n     * \r\n     * Impedir que se pueda meter un nombre vacio.\r\n     * \r\n     * @param _nombre El nombre del alumno. \r\n     * @param _email  El email del alumno.\r\n     */\r\n    function automatricula(string memory _nombre, string memory _email) soloNoMatriculados public {\r\n        require(bytes(_nombre).length != 0, \"El nombre no puede ser vacio\");\r\n\r\n        DatosAlumno memory datos = DatosAlumno(_nombre, _email);\r\n\r\n        datosAlumno[msg.sender] = datos;\r\n\r\n        matriculas.push(msg.sender);\r\n    }\r\n\r\n    /**\r\n     * El numero de alumnos matriculados.\r\n     *\r\n     * @return El numero de alumnos matriculados.\r\n     */\r\n    function matriculasLength() public view returns(uint) {\r\n        return matriculas.length;\r\n    }\r\n    \r\n    /**\r\n     * Permite a un alumno obtener sus propios datos.\r\n     * \r\n     * @return _nombre El nombre del alumno que invoca el metodo.\r\n     * @return _email  El email del alumno que invoca el metodo.\r\n     */\r\n    function quienSoy() soloMatriculados public view returns (string memory _nombre, string memory _email) {\r\n        DatosAlumno memory datos = datosAlumno[msg.sender];\r\n        _nombre = datos.nombre;\r\n        _email = datos.email;\r\n    }\r\n    \r\n    /**\r\n     * Crear una prueba de evaluacion de la asignatura. Por ejemplo, el primer parcial, o la practica 3. \r\n     *\r\n     * Las evaluaciones se meteran en el array evaluaciones, y nos referiremos a ellas por su posicion en el array.\r\n     * \r\n     * @param _nombre El nombre de la evaluacion.\r\n     * @param _fecha  La fecha de evaluacion (segundos desde el 1/1/1970).\r\n     * @param _porcentaje El porcentaje de puntos que proporciona a la nota final.\r\n     *\r\n     * @return La posicion en el array evaluaciones,\r\n     */\r\n    function creaEvaluacion(string memory _nombre, uint _fecha, uint _porcentaje) soloProfesor  public returns (uint) {\r\n        require(bytes(_nombre).length != 0, \"El nombre de la evaluacion no puede ser vacio\");\r\n        \r\n        evaluaciones.push(Evaluacion(_nombre, _fecha, _porcentaje));\r\n        return evaluaciones.length - 1;\r\n    }\r\n    \r\n    /**\r\n     * El numero de evaluaciones creadas.\r\n     *\r\n     * @return El numero de evaluaciones creadas.\r\n     */\r\n    function evaluacionesLength() public view returns(uint) {\r\n        return evaluaciones.length;\r\n    }\r\n    \r\n    /**\r\n     * Poner la nota de un alumno en una evaluacion.\r\n     * \r\n     * @param alumno        La direccion del alumno.\r\n     * @param evaluacion    El indice de una evaluacion en el array evaluaciones.\r\n     * @param tipo          Tipo de nota.\r\n     * @param calificacion  La calificacion, multipilicada por 100 porque no hay decimales.\r\n     */\r\n    function califica(address alumno, uint evaluacion, TipoNota tipo, uint calificacion) soloProfesor public {\r\n        require(estaMatriculado(alumno), \"Solo se pueden calificar a un alumno matriculado.\");\r\n        require(evaluacion < evaluaciones.length, \"No se puede calificar una evaluacion que no existe.\");\r\n        require(calificacion <= 1000, \"No se puede calificar con una nota superior a la maxima permitida.\");\r\n\r\n        Nota memory nota = Nota(tipo, calificacion);\r\n        \r\n        calificaciones[alumno][evaluacion] = nota;\r\n    }\r\n    \r\n    /**\r\n     * Devuelve el tipo de nota y la calificacion que ha sacado el alumno que invoca el metodo en la evaluacion pasada como parametro.\r\n     * \r\n     * @param evaluacion Indice de una evaluacion en el array de evaluaciones.\r\n     * \r\n     * @return tipo         El tipo de nota que ha sacado el alumno.\r\n     * @return calificacion La calificacion que ha sacado el alumno.\r\n     */ \r\n    function miNota(uint evaluacion) soloMatriculados public view returns (TipoNota tipo, uint calificacion) {\r\n        require(evaluacion < evaluaciones.length, \"El indice de la evaluacion no existe.\");\r\n        \r\n        Nota memory nota = calificaciones[msg.sender][evaluacion];\r\n        \r\n        tipo = nota.tipo;\r\n        calificacion = nota.calificacion;\r\n    }\r\n\r\n   /**\r\n     * Consulta si una direccion pertenece a un alumno matriculado.\r\n     * \r\n     * @param alumno La direccion de un alumno.\r\n     * \r\n     * @return true si es una alumno matriculado.\r\n     */\r\n    function estaMatriculado(address alumno) private view returns (bool) {\r\n        string memory _nombre = datosAlumno[alumno].nombre;\r\n        \r\n        return bytes(_nombre).length != 0;\r\n    } \r\n    \r\n    /**\r\n     * Modificador para que una funcion solo la pueda ejecutar el profesor.\r\n     * \r\n     * Se usa en creaEvaluacion y en califica.\r\n     */\r\n    modifier soloProfesor() {\r\n        require(msg.sender == profesor, \"Solo permitido al profesor\");\r\n        _;\r\n    }\r\n    \r\n    /**\r\n     * Modificador para que una funcion solo la pueda ejecutar un alumno matriculado.\r\n     */\r\n    modifier soloMatriculados() {\r\n        require(estaMatriculado(msg.sender), \"Solo permitido a alumnos matriculados\");\r\n        _;\r\n    }\r\n    \r\n    /**\r\n     * Modificador para que una funcion solo la pueda ejecutar un alumno no matriculado aun.\r\n     */\r\n    modifier soloNoMatriculados() {\r\n        require(!estaMatriculado(msg.sender), \"Solo permitido a alumnos no matriculados\");\r\n        _;\r\n    }\r\n    \r\n    /**\r\n     * No se permite la recepcion de dinero.\r\n     */\r\n    receive() external payable {\r\n        revert(\"No se permite la recepcion de dinero.\");\r\n    }\r\n }\r\n ",
  "sourcePath": "C:\\Users\\Patricia\\OneDrive\\Escritorio\\UPM\\Master\\BCDA\\P7\\Asignatura\\truffle\\contracts\\Asignatura.sol",
  "compiler": {
    "name": "solc",
    "version": "0.8.17+commit.8df45f5f.Emscripten.clang"
  },
  "schemaVersion": "3.4.10",
  "updatedAt": "2022-12-17T11:10:52.199Z",
  "networkType": "ethereum",
  "devdoc": {
    "kind": "dev",
    "methods": {
      "automatricula(string,string)": {
        "params": {
          "_email": "El email del alumno.",
          "_nombre": "El nombre del alumno. "
        }
      },
      "califica(address,uint256,uint8,uint256)": {
        "params": {
          "alumno": "La direccion del alumno.",
          "calificacion": "La calificacion, multipilicada por 100 porque no hay decimales.",
          "evaluacion": "El indice de una evaluacion en el array evaluaciones.",
          "tipo": "Tipo de nota."
        }
      },
      "constructor": {
        "params": {
          "_curso": "Curso academico.",
          "_nombre": "Nombre de la asignatura."
        }
      },
      "creaEvaluacion(string,uint256,uint256)": {
        "params": {
          "_fecha": "La fecha de evaluacion (segundos desde el 1/1/1970).",
          "_nombre": "El nombre de la evaluacion.",
          "_porcentaje": "El porcentaje de puntos que proporciona a la nota final."
        },
        "returns": {
          "_0": "La posicion en el array evaluaciones,"
        }
      },
      "evaluacionesLength()": {
        "returns": {
          "_0": "El numero de evaluaciones creadas."
        }
      },
      "matriculasLength()": {
        "returns": {
          "_0": "El numero de alumnos matriculados."
        }
      },
      "miNota(uint256)": {
        "params": {
          "evaluacion": "Indice de una evaluacion en el array de evaluaciones. "
        },
        "returns": {
          "calificacion": "La calificacion que ha sacado el alumno.",
          "tipo": "        El tipo de nota que ha sacado el alumno."
        }
      },
      "quienSoy()": {
        "returns": {
          "_email": " El email del alumno que invoca el metodo.",
          "_nombre": "El nombre del alumno que invoca el metodo."
        }
      }
    },
    "version": 1
  },
  "userdoc": {
    "kind": "user",
    "methods": {
      "automatricula(string,string)": {
        "notice": "Los alumnos pueden automatricularse con el metodo automatricula.  Impedir que se pueda meter un nombre vacio. "
      },
      "califica(address,uint256,uint8,uint256)": {
        "notice": "Poner la nota de un alumno en una evaluacion. "
      },
      "constructor": {
        "notice": "Constructor. "
      },
      "creaEvaluacion(string,uint256,uint256)": {
        "notice": "Crear una prueba de evaluacion de la asignatura. Por ejemplo, el primer parcial, o la practica 3.  Las evaluaciones se meteran en el array evaluaciones, y nos referiremos a ellas por su posicion en el array. "
      },
      "curso()": {
        "notice": "Curso academico"
      },
      "datosAlumno(address)": {
        "notice": "Acceder a los datos de un alumno dada su direccion."
      },
      "evaluaciones(uint256)": {
        "notice": "Evaluaciones de la asignatura."
      },
      "evaluacionesLength()": {
        "notice": "El numero de evaluaciones creadas."
      },
      "matriculasLength()": {
        "notice": "El numero de alumnos matriculados."
      },
      "miNota(uint256)": {
        "notice": "Devuelve el tipo de nota y la calificacion que ha sacado el alumno que invoca el metodo en la evaluacion pasada como parametro. "
      },
      "nombre()": {
        "notice": "Nombre de la asignatura"
      },
      "profesor()": {
        "notice": "address del profesor que ha desplegado el contrato. El contrato lo despliega el profesor."
      },
      "quienSoy()": {
        "notice": "Permite a un alumno obtener sus propios datos. "
      },
      "version()": {
        "notice": "Version 2022 Lite - Teoria"
      }
    },
    "notice": "El contrato Asignatura que representa una asignatura de la carrera.  Version Lite - Practicas  Posibles modificaciones:  - Gestionar el limite de los puntos que aporta cada evaluacion.  - Puede repetirse el nombre de una evaluacion?  - Cambiar algunos uint a uint8 ??  - Nota minima en las evaluaciones?  - Evaluacion obligatoria u opcional?  - Nota final en la asignatura.  - Evaluacion continua, final, extraordinaria, ....  - Un alumno puede ser el owner, el coordinador o un profesor?  - Un profesor si puede ser el coordinador.",
    "version": 1
  }
}