{
  "contractName": "Asignatura",
  "abi": [
    {
      "inputs": [
        {
          "internalType": "string",
          "name": "_nombre",
          "type": "string"
        },
        {
          "internalType": "string",
          "name": "_curso",
          "type": "string"
        }
      ],
      "stateMutability": "nonpayable",
      "type": "constructor"
    },
    {
      "inputs": [
        {
          "internalType": "string",
          "name": "dni",
          "type": "string"
        }
      ],
      "name": "DNIDuplicadoError",
      "type": "error"
    },
    {
      "inputs": [
        {
          "internalType": "address",
          "name": "",
          "type": "address"
        },
        {
          "internalType": "uint256",
          "name": "",
          "type": "uint256"
        }
      ],
      "name": "calificaciones",
      "outputs": [
        {
          "internalType": "enum Asignatura.TipoNota",
          "name": "tipo",
          "type": "uint8"
        },
        {
          "internalType": "uint256",
          "name": "calificacion",
          "type": "uint256"
        }
      ],
      "stateMutability": "view",
      "type": "function",
      "constant": true
    },
    {
      "inputs": [],
      "name": "cerrada",
      "outputs": [
        {
          "internalType": "bool",
          "name": "",
          "type": "bool"
        }
      ],
      "stateMutability": "view",
      "type": "function",
      "constant": true
    },
    {
      "inputs": [],
      "name": "coordinador",
      "outputs": [
        {
          "internalType": "address",
          "name": "",
          "type": "address"
        }
      ],
      "stateMutability": "view",
      "type": "function",
      "constant": true
    },
    {
      "inputs": [],
      "name": "curso",
      "outputs": [
        {
          "internalType": "string",
          "name": "",
          "type": "string"
        }
      ],
      "stateMutability": "view",
      "type": "function",
      "constant": true
    },
    {
      "inputs": [
        {
          "internalType": "address",
          "name": "",
          "type": "address"
        }
      ],
      "name": "datosAlumno",
      "outputs": [
        {
          "internalType": "string",
          "name": "nombre",
          "type": "string"
        },
        {
          "internalType": "string",
          "name": "dni",
          "type": "string"
        },
        {
          "internalType": "string",
          "name": "email",
          "type": "string"
        }
      ],
      "stateMutability": "view",
      "type": "function",
      "constant": true
    },
    {
      "inputs": [
        {
          "internalType": "address",
          "name": "",
          "type": "address"
        }
      ],
      "name": "datosProfesor",
      "outputs": [
        {
          "internalType": "string",
          "name": "",
          "type": "string"
        }
      ],
      "stateMutability": "view",
      "type": "function",
      "constant": true
    },
    {
      "inputs": [
        {
          "internalType": "string",
          "name": "",
          "type": "string"
        }
      ],
      "name": "dniUsados",
      "outputs": [
        {
          "internalType": "address",
          "name": "",
          "type": "address"
        }
      ],
      "stateMutability": "view",
      "type": "function",
      "constant": true
    },
    {
      "inputs": [
        {
          "internalType": "uint256",
          "name": "",
          "type": "uint256"
        }
      ],
      "name": "evaluaciones",
      "outputs": [
        {
          "internalType": "string",
          "name": "nombre",
          "type": "string"
        },
        {
          "internalType": "uint256",
          "name": "fecha",
          "type": "uint256"
        },
        {
          "internalType": "uint256",
          "name": "porcentaje",
          "type": "uint256"
        },
        {
          "internalType": "uint256",
          "name": "minimo",
          "type": "uint256"
        }
      ],
      "stateMutability": "view",
      "type": "function",
      "constant": true
    },
    {
      "inputs": [
        {
          "internalType": "uint256",
          "name": "",
          "type": "uint256"
        }
      ],
      "name": "matriculas",
      "outputs": [
        {
          "internalType": "address",
          "name": "",
          "type": "address"
        }
      ],
      "stateMutability": "view",
      "type": "function",
      "constant": true
    },
    {
      "inputs": [],
      "name": "nombre",
      "outputs": [
        {
          "internalType": "string",
          "name": "",
          "type": "string"
        }
      ],
      "stateMutability": "view",
      "type": "function",
      "constant": true
    },
    {
      "inputs": [],
      "name": "owner",
      "outputs": [
        {
          "internalType": "address",
          "name": "",
          "type": "address"
        }
      ],
      "stateMutability": "view",
      "type": "function",
      "constant": true
    },
    {
      "inputs": [
        {
          "internalType": "uint256",
          "name": "",
          "type": "uint256"
        }
      ],
      "name": "profesores",
      "outputs": [
        {
          "internalType": "address",
          "name": "",
          "type": "address"
        }
      ],
      "stateMutability": "view",
      "type": "function",
      "constant": true
    },
    {
      "inputs": [],
      "name": "version",
      "outputs": [
        {
          "internalType": "string",
          "name": "",
          "type": "string"
        }
      ],
      "stateMutability": "view",
      "type": "function",
      "constant": true
    },
    {
      "stateMutability": "payable",
      "type": "receive",
      "payable": true
    },
    {
      "inputs": [
        {
          "internalType": "address",
          "name": "addr",
          "type": "address"
        }
      ],
      "name": "setCoordinador",
      "outputs": [],
      "stateMutability": "nonpayable",
      "type": "function"
    },
    {
      "inputs": [],
      "name": "cerrar",
      "outputs": [],
      "stateMutability": "nonpayable",
      "type": "function"
    },
    {
      "inputs": [
        {
          "internalType": "address",
          "name": "_addr",
          "type": "address"
        },
        {
          "internalType": "string",
          "name": "_nombre",
          "type": "string"
        }
      ],
      "name": "addProfesor",
      "outputs": [],
      "stateMutability": "nonpayable",
      "type": "function"
    },
    {
      "inputs": [],
      "name": "profesoresLength",
      "outputs": [
        {
          "internalType": "uint256",
          "name": "",
          "type": "uint256"
        }
      ],
      "stateMutability": "view",
      "type": "function",
      "constant": true
    },
    {
      "inputs": [
        {
          "internalType": "string",
          "name": "_nombre",
          "type": "string"
        },
        {
          "internalType": "string",
          "name": "_dni",
          "type": "string"
        },
        {
          "internalType": "string",
          "name": "_email",
          "type": "string"
        }
      ],
      "name": "automatricula",
      "outputs": [],
      "stateMutability": "nonpayable",
      "type": "function"
    },
    {
      "inputs": [
        {
          "internalType": "address",
          "name": "_addr",
          "type": "address"
        },
        {
          "internalType": "string",
          "name": "_nombre",
          "type": "string"
        },
        {
          "internalType": "string",
          "name": "_dni",
          "type": "string"
        },
        {
          "internalType": "string",
          "name": "_email",
          "type": "string"
        }
      ],
      "name": "matricular",
      "outputs": [],
      "stateMutability": "nonpayable",
      "type": "function"
    },
    {
      "inputs": [],
      "name": "matriculasLength",
      "outputs": [
        {
          "internalType": "uint256",
          "name": "",
          "type": "uint256"
        }
      ],
      "stateMutability": "view",
      "type": "function",
      "constant": true
    },
    {
      "inputs": [],
      "name": "quienSoy",
      "outputs": [
        {
          "internalType": "string",
          "name": "_nombre",
          "type": "string"
        },
        {
          "internalType": "string",
          "name": "_dni",
          "type": "string"
        },
        {
          "internalType": "string",
          "name": "_email",
          "type": "string"
        }
      ],
      "stateMutability": "view",
      "type": "function",
      "constant": true
    },
    {
      "inputs": [
        {
          "internalType": "string",
          "name": "_nombre",
          "type": "string"
        },
        {
          "internalType": "uint256",
          "name": "_fecha",
          "type": "uint256"
        },
        {
          "internalType": "uint256",
          "name": "_porcentaje",
          "type": "uint256"
        },
        {
          "internalType": "uint256",
          "name": "_minimo",
          "type": "uint256"
        }
      ],
      "name": "creaEvaluacion",
      "outputs": [
        {
          "internalType": "uint256",
          "name": "",
          "type": "uint256"
        }
      ],
      "stateMutability": "nonpayable",
      "type": "function"
    },
    {
      "inputs": [
        {
          "internalType": "uint256",
          "name": "_id",
          "type": "uint256"
        },
        {
          "internalType": "string",
          "name": "_nombre",
          "type": "string"
        },
        {
          "internalType": "uint256",
          "name": "_fecha",
          "type": "uint256"
        },
        {
          "internalType": "uint256",
          "name": "_porcentaje",
          "type": "uint256"
        },
        {
          "internalType": "uint256",
          "name": "_minimo",
          "type": "uint256"
        }
      ],
      "name": "modificaEvaluacion",
      "outputs": [],
      "stateMutability": "nonpayable",
      "type": "function"
    },
    {
      "inputs": [],
      "name": "evaluacionesLength",
      "outputs": [
        {
          "internalType": "uint256",
          "name": "",
          "type": "uint256"
        }
      ],
      "stateMutability": "view",
      "type": "function",
      "constant": true
    },
    {
      "inputs": [
        {
          "internalType": "address",
          "name": "alumno",
          "type": "address"
        },
        {
          "internalType": "uint256",
          "name": "evaluacion",
          "type": "uint256"
        },
        {
          "internalType": "enum Asignatura.TipoNota",
          "name": "tipo",
          "type": "uint8"
        },
        {
          "internalType": "uint256",
          "name": "calificacion",
          "type": "uint256"
        }
      ],
      "name": "califica",
      "outputs": [],
      "stateMutability": "nonpayable",
      "type": "function"
    },
    {
      "inputs": [
        {
          "internalType": "uint256",
          "name": "evaluacion",
          "type": "uint256"
        }
      ],
      "name": "miNota",
      "outputs": [
        {
          "internalType": "enum Asignatura.TipoNota",
          "name": "tipo",
          "type": "uint8"
        },
        {
          "internalType": "uint256",
          "name": "calificacion",
          "type": "uint256"
        }
      ],
      "stateMutability": "view",
      "type": "function",
      "constant": true
    },
    {
      "inputs": [],
      "name": "miNotaFinal",
      "outputs": [
        {
          "internalType": "enum Asignatura.TipoNota",
          "name": "tipo",
          "type": "uint8"
        },
        {
          "internalType": "uint256",
          "name": "calificacion",
          "type": "uint256"
        }
      ],
      "stateMutability": "view",
      "type": "function",
      "constant": true
    },
    {
      "inputs": [
        {
          "internalType": "address",
          "name": "_addr",
          "type": "address"
        }
      ],
      "name": "notaFinal",
      "outputs": [
        {
          "internalType": "enum Asignatura.TipoNota",
          "name": "tipo",
          "type": "uint8"
        },
        {
          "internalType": "uint256",
          "name": "calificacion",
          "type": "uint256"
        }
      ],
      "stateMutability": "view",
      "type": "function",
      "constant": true
    }
  ],
  "bytecode": "0x60806040526040518060400160405280600981526020017f323032322046756c6c0000000000000000000000000000000000000000000000815250600090816200004a9190620003f3565b503480156200005857600080fd5b50604051620045663803806200456683398181016040528101906200007e91906200063e565b6000825103620000c5576040517f08c379a0000000000000000000000000000000000000000000000000000000008152600401620000bc906200074a565b60405180910390fd5b60008151036200010c576040517f08c379a00000000000000000000000000000000000000000000000000000000081526004016200010390620007e2565b60405180910390fd5b33600160006101000a81548173ffffffffffffffffffffffffffffffffffffffff021916908373ffffffffffffffffffffffffffffffffffffffff16021790555081600290816200015e9190620003f3565b508060039081620001709190620003f3565b50505062000804565b600081519050919050565b7f4e487b7100000000000000000000000000000000000000000000000000000000600052604160045260246000fd5b7f4e487b7100000000000000000000000000000000000000000000000000000000600052602260045260246000fd5b60006002820490506001821680620001fb57607f821691505b602082108103620002115762000210620001b3565b5b50919050565b60008190508160005260206000209050919050565b60006020601f8301049050919050565b600082821b905092915050565b6000600883026200027b7fffffffffffffffffffffffffffffffffffffffffffffffffffffffffffffffff826200023c565b6200028786836200023c565b95508019841693508086168417925050509392505050565b6000819050919050565b6000819050919050565b6000620002d4620002ce620002c8846200029f565b620002a9565b6200029f565b9050919050565b6000819050919050565b620002f083620002b3565b62000308620002ff82620002db565b84845462000249565b825550505050565b600090565b6200031f62000310565b6200032c818484620002e5565b505050565b5b8181101562000354576200034860008262000315565b60018101905062000332565b5050565b601f821115620003a3576200036d8162000217565b62000378846200022c565b8101602085101562000388578190505b620003a062000397856200022c565b83018262000331565b50505b505050565b600082821c905092915050565b6000620003c860001984600802620003a8565b1980831691505092915050565b6000620003e38383620003b5565b9150826002028217905092915050565b620003fe8262000179565b67ffffffffffffffff8111156200041a576200041962000184565b5b620004268254620001e2565b6200043382828562000358565b600060209050601f8311600181146200046b576000841562000456578287015190505b620004628582620003d5565b865550620004d2565b601f1984166200047b8662000217565b60005b82811015620004a5578489015182556001820191506020850194506020810190506200047e565b86831015620004c55784890151620004c1601f891682620003b5565b8355505b6001600288020188555050505b505050505050565b6000604051905090565b600080fd5b600080fd5b600080fd5b600080fd5b6000601f19601f8301169050919050565b6200051482620004f8565b810181811067ffffffffffffffff8211171562000536576200053562000184565b5b80604052505050565b60006200054b620004da565b905062000559828262000509565b919050565b600067ffffffffffffffff8211156200057c576200057b62000184565b5b6200058782620004f8565b9050602081019050919050565b60005b83811015620005b457808201518184015260208101905062000597565b60008484015250505050565b6000620005d7620005d1846200055e565b6200053f565b905082815260208101848484011115620005f657620005f5620004f3565b5b6200060384828562000594565b509392505050565b600082601f830112620006235762000622620004ee565b5b815162000635848260208601620005c0565b91505092915050565b60008060408385031215620006585762000657620004e4565b5b600083015167ffffffffffffffff811115620006795762000678620004e9565b5b62000687858286016200060b565b925050602083015167ffffffffffffffff811115620006ab57620006aa620004e9565b5b620006b9858286016200060b565b9150509250929050565b600082825260208201905092915050565b7f456c206e6f6d627265206465206c6120617369676e6174757261206e6f20707560008201527f6564652073657220766163696f00000000000000000000000000000000000000602082015250565b600062000732602d83620006c3565b91506200073f82620006d4565b604082019050919050565b60006020820190508181036000830152620007658162000723565b9050919050565b7f456c20637572736f2061636164656d69636f206465206c6120617369676e617460008201527f757261206e6f2070756564652073657220766163696f00000000000000000000602082015250565b6000620007ca603683620006c3565b9150620007d7826200076c565b604082019050919050565b60006020820190508181036000830152620007fd81620007bb565b9050919050565b613d5280620008146000396000f3fe6080604052600436106101bb5760003560e01c80636bf8aad6116100ec578063c83737501161008a578063d51b458411610064578063d51b4584146106bd578063dab6ff28146106e6578063deafcc41146106fd578063f967f98614610728576101fb565b8063c837375014610616578063d00de47a14610653578063d27c3f3c1461067f576101fb565b80638da5cb5b116100c65780638da5cb5b146105585780639e1d8f4b14610583578063bc7b35b2146105ae578063c7918139146105d9576101fb565b80636bf8aad6146104c55780637810ff1e146105045780638a0ee3c81461052f576101fb565b8063488cf4f51161015957806354fd4d501161013357806354fd4d50146103f65780635aa4ffe614610421578063641945bf1461045f578063681d4ca61461049c576101fb565b8063488cf4f514610361578063526a8ec61461038c57806353766883146103c9576101fb565b806330322c9b1161019557806330322c9b1461029157806342a6dde2146102ba57806344f7a8cc146102f857806347ba31da14610338576101fb565b8063034856d7146102005780631d2e4d2b1461023d57806322c4e39414610266576101fb565b366101fb576040517f08c379a00000000000000000000000000000000000000000000000000000000081526004016101f290612778565b60405180910390fd5b600080fd5b34801561020c57600080fd5b5061022760048036038101906102229190612928565b610753565b60405161023491906129ba565b60405180910390f35b34801561024957600080fd5b50610264600480360381019061025f9190612a33565b610917565b005b34801561027257600080fd5b5061027b610b7d565b6040516102889190612aaa565b60405180910390f35b34801561029d57600080fd5b506102b860048036038101906102b39190612aea565b610b90565b005b3480156102c657600080fd5b506102e160048036038101906102dc9190612b51565b610e85565b6040516102ef929190612c08565b60405180910390f35b34801561030457600080fd5b5061031f600480360381019061031a9190612c31565b610ec3565b60405161032f9493929190612ccc565b60405180910390f35b34801561034457600080fd5b5061035f600480360381019061035a9190612d18565b610f8b565b005b34801561036d57600080fd5b506103766110c6565b60405161038391906129ba565b60405180910390f35b34801561039857600080fd5b506103b360048036038101906103ae9190612dd3565b6110d3565b6040516103c09190612e2b565b60405180910390f35b3480156103d557600080fd5b506103de61111c565b6040516103ed93929190612e46565b60405180910390f35b34801561040257600080fd5b5061040b611388565b6040516104189190612e92565b60405180910390f35b34801561042d57600080fd5b5061044860048036038101906104439190612eb4565b611416565b604051610456929190612c08565b60405180910390f35b34801561046b57600080fd5b5061048660048036038101906104819190612eb4565b6114bb565b6040516104939190612e92565b60405180910390f35b3480156104a857600080fd5b506104c360048036038101906104be9190612ee1565b61155b565b005b3480156104d157600080fd5b506104ec60048036038101906104e79190612eb4565b611605565b6040516104fb93929190612e46565b60405180910390f35b34801561051057600080fd5b506105196117c7565b6040516105269190612e2b565b60405180910390f35b34801561053b57600080fd5b5061055660048036038101906105519190612f88565b6117ed565b005b34801561056457600080fd5b5061056d611a2c565b60405161057a9190612e2b565b60405180910390f35b34801561058f57600080fd5b50610598611a52565b6040516105a591906129ba565b60405180910390f35b3480156105ba57600080fd5b506105c3611a5f565b6040516105d09190612e92565b60405180910390f35b3480156105e557600080fd5b5061060060048036038101906105fb9190612c31565b611aed565b60405161060d9190612e2b565b60405180910390f35b34801561062257600080fd5b5061063d60048036038101906106389190612c31565b611b2c565b60405161064a9190612e2b565b60405180910390f35b34801561065f57600080fd5b50610668611b6b565b604051610676929190612c08565b60405180910390f35b34801561068b57600080fd5b506106a660048036038101906106a19190612c31565b611bc7565b6040516106b4929190612c08565b60405180910390f35b3480156106c957600080fd5b506106e460048036038101906106df9190612eb4565b611d11565b005b3480156106f257600080fd5b506106fb611e35565b005b34801561070957600080fd5b50610712611ee2565b60405161071f9190612e92565b60405180910390f35b34801561073457600080fd5b5061073d611f70565b60405161074a91906129ba565b60405180910390f35b6000600460009054906101000a900473ffffffffffffffffffffffffffffffffffffffff1673ffffffffffffffffffffffffffffffffffffffff163373ffffffffffffffffffffffffffffffffffffffff16146107e5576040517f08c379a00000000000000000000000000000000000000000000000000000000081526004016107dc9061306b565b60405180910390fd5b600460149054906101000a900460ff1615610835576040517f08c379a000000000000000000000000000000000000000000000000000000000815260040161082c906130fd565b60405180910390fd5b6000855103610879576040517f08c379a00000000000000000000000000000000000000000000000000000000081526004016108709061318f565b60405180910390fd5b600a604051806080016040528087815260200186815260200185815260200184815250908060018154018082558091505060019003906000526020600020906004020160009091909190915060008201518160000190816108da91906133bb565b5060208201518160010155604082015181600201556060820151816003015550506001600a8054905061090d91906134bc565b9050949350505050565b600160009054906101000a900473ffffffffffffffffffffffffffffffffffffffff1673ffffffffffffffffffffffffffffffffffffffff163373ffffffffffffffffffffffffffffffffffffffff16146109a7576040517f08c379a000000000000000000000000000000000000000000000000000000000815260040161099e9061353c565b60405180910390fd5b600460149054906101000a900460ff16156109f7576040517f08c379a00000000000000000000000000000000000000000000000000000000081526004016109ee906130fd565b60405180910390fd5b6000600560008473ffffffffffffffffffffffffffffffffffffffff1673ffffffffffffffffffffffffffffffffffffffff1681526020019081526020016000208054610a43906131de565b905014610a85576040517f08c379a0000000000000000000000000000000000000000000000000000000008152600401610a7c906135ce565b60405180910390fd5b6000815103610ac9576040517f08c379a0000000000000000000000000000000000000000000000000000000008152600401610ac090613660565b60405180910390fd5b80600560008473ffffffffffffffffffffffffffffffffffffffff1673ffffffffffffffffffffffffffffffffffffffff1681526020019081526020016000209081610b1591906133bb565b506006829080600181540180825580915050600190039060005260206000200160009091909190916101000a81548173ffffffffffffffffffffffffffffffffffffffff021916908373ffffffffffffffffffffffffffffffffffffffff1602179055505050565b600460149054906101000a900460ff1681565b6000600560003373ffffffffffffffffffffffffffffffffffffffff1673ffffffffffffffffffffffffffffffffffffffff1681526020019081526020016000208054610bdc906131de565b80601f0160208091040260200160405190810160405280929190818152602001828054610c08906131de565b8015610c555780601f10610c2a57610100808354040283529160200191610c55565b820191906000526020600020905b815481529060010190602001808311610c3857829003601f168201915b505050505090506000815103610ca0576040517f08c379a0000000000000000000000000000000000000000000000000000000008152600401610c97906136cc565b60405180910390fd5b600460149054906101000a900460ff1615610cf0576040517f08c379a0000000000000000000000000000000000000000000000000000000008152600401610ce7906130fd565b60405180910390fd5b610cf985611f7d565b610d38576040517f08c379a0000000000000000000000000000000000000000000000000000000008152600401610d2f9061375e565b60405180910390fd5b600a805490508410610d7f576040517f08c379a0000000000000000000000000000000000000000000000000000000008152600401610d76906137f0565b60405180910390fd5b6103e8821115610dc4576040517f08c379a0000000000000000000000000000000000000000000000000000000008152600401610dbb906138a8565b60405180910390fd5b60006040518060400160405280856002811115610de457610de3612b91565b5b815260200184815250905080600b60008873ffffffffffffffffffffffffffffffffffffffff1673ffffffffffffffffffffffffffffffffffffffff168152602001908152602001600020600087815260200190815260200160002060008201518160000160006101000a81548160ff02191690836002811115610e6b57610e6a612b91565b5b021790555060208201518160010155905050505050505050565b600b602052816000526040600020602052806000526040600020600091509150508060000160009054906101000a900460ff16908060010154905082565b600a8181548110610ed357600080fd5b9060005260206000209060040201600091509050806000018054610ef6906131de565b80601f0160208091040260200160405190810160405280929190818152602001828054610f22906131de565b8015610f6f5780601f10610f4457610100808354040283529160200191610f6f565b820191906000526020600020905b815481529060010190602001808311610f5257829003601f168201915b5050505050908060010154908060020154908060030154905084565b600160009054906101000a900473ffffffffffffffffffffffffffffffffffffffff1673ffffffffffffffffffffffffffffffffffffffff163373ffffffffffffffffffffffffffffffffffffffff161461101b576040517f08c379a00000000000000000000000000000000000000000000000000000000081526004016110129061353c565b60405180910390fd5b61102433611f7d565b15611064576040517f08c379a000000000000000000000000000000000000000000000000000000000815260040161105b9061393a565b60405180910390fd5b600460149054906101000a900460ff16156110b4576040517f08c379a00000000000000000000000000000000000000000000000000000000081526004016110ab906130fd565b60405180910390fd5b6110c08484848461205b565b50505050565b6000600a80549050905090565b6008818051602081018201805184825260208301602085012081835280955050505050506000915054906101000a900473ffffffffffffffffffffffffffffffffffffffff1681565b606080606061112a33611f7d565b611169576040517f08c379a0000000000000000000000000000000000000000000000000000000008152600401611160906139cc565b60405180910390fd5b6000600760003373ffffffffffffffffffffffffffffffffffffffff1673ffffffffffffffffffffffffffffffffffffffff1681526020019081526020016000206040518060600160405290816000820180546111c5906131de565b80601f01602080910402602001604051908101604052809291908181526020018280546111f1906131de565b801561123e5780601f106112135761010080835404028352916020019161123e565b820191906000526020600020905b81548152906001019060200180831161122157829003601f168201915b50505050508152602001600182018054611257906131de565b80601f0160208091040260200160405190810160405280929190818152602001828054611283906131de565b80156112d05780601f106112a5576101008083540402835291602001916112d0565b820191906000526020600020905b8154815290600101906020018083116112b357829003601f168201915b505050505081526020016002820180546112e9906131de565b80601f0160208091040260200160405190810160405280929190818152602001828054611315906131de565b80156113625780601f1061133757610100808354040283529160200191611362565b820191906000526020600020905b81548152906001019060200180831161134557829003601f168201915b505050505081525050905080600001519350806020015192508060400151915050909192565b60008054611395906131de565b80601f01602080910402602001604051908101604052809291908181526020018280546113c1906131de565b801561140e5780601f106113e35761010080835404028352916020019161140e565b820191906000526020600020905b8154815290600101906020018083116113f157829003601f168201915b505050505081565b600080600460009054906101000a900473ffffffffffffffffffffffffffffffffffffffff1673ffffffffffffffffffffffffffffffffffffffff163373ffffffffffffffffffffffffffffffffffffffff16146114a9576040517f08c379a00000000000000000000000000000000000000000000000000000000081526004016114a09061306b565b60405180910390fd5b6114b283612396565b91509150915091565b600560205280600052604060002060009150905080546114da906131de565b80601f0160208091040260200160405190810160405280929190818152602001828054611506906131de565b80156115535780601f1061152857610100808354040283529160200191611553565b820191906000526020600020905b81548152906001019060200180831161153657829003601f168201915b505050505081565b61156433611f7d565b156115a4576040517f08c379a000000000000000000000000000000000000000000000000000000000815260040161159b9061393a565b60405180910390fd5b600460149054906101000a900460ff16156115f4576040517f08c379a00000000000000000000000000000000000000000000000000000000081526004016115eb906130fd565b60405180910390fd5b6116003384848461205b565b505050565b6007602052806000526040600020600091509050806000018054611628906131de565b80601f0160208091040260200160405190810160405280929190818152602001828054611654906131de565b80156116a15780601f10611676576101008083540402835291602001916116a1565b820191906000526020600020905b81548152906001019060200180831161168457829003601f168201915b5050505050908060010180546116b6906131de565b80601f01602080910402602001604051908101604052809291908181526020018280546116e2906131de565b801561172f5780601f106117045761010080835404028352916020019161172f565b820191906000526020600020905b81548152906001019060200180831161171257829003601f168201915b505050505090806002018054611744906131de565b80601f0160208091040260200160405190810160405280929190818152602001828054611770906131de565b80156117bd5780601f10611792576101008083540402835291602001916117bd565b820191906000526020600020905b8154815290600101906020018083116117a057829003601f168201915b5050505050905083565b600460009054906101000a900473ffffffffffffffffffffffffffffffffffffffff1681565b600460009054906101000a900473ffffffffffffffffffffffffffffffffffffffff1673ffffffffffffffffffffffffffffffffffffffff163373ffffffffffffffffffffffffffffffffffffffff161461187d576040517f08c379a00000000000000000000000000000000000000000000000000000000081526004016118749061306b565b60405180910390fd5b600460149054906101000a900460ff16156118cd576040517f08c379a00000000000000000000000000000000000000000000000000000000081526004016118c4906130fd565b60405180910390fd5b6000845103611911576040517f08c379a00000000000000000000000000000000000000000000000000000000081526004016119089061318f565b60405180910390fd5b600a805490508510611958576040517f08c379a000000000000000000000000000000000000000000000000000000000815260040161194f90613a84565b60405180910390fd5b600a858154811061196c5761196b613aa4565b5b90600052602060002090600402016000808201600061198b9190612698565b60018201600090556002820160009055600382016000905550506000604051806080016040528086815260200185815260200184815260200183815250905080600a87815481106119df576119de613aa4565b5b90600052602060002090600402016000820151816000019081611a0291906133bb565b50602082015181600101556040820151816002015560608201518160030155905050505050505050565b600160009054906101000a900473ffffffffffffffffffffffffffffffffffffffff1681565b6000600980549050905090565b60028054611a6c906131de565b80601f0160208091040260200160405190810160405280929190818152602001828054611a98906131de565b8015611ae55780601f10611aba57610100808354040283529160200191611ae5565b820191906000526020600020905b815481529060010190602001808311611ac857829003601f168201915b505050505081565b60098181548110611afd57600080fd5b906000526020600020016000915054906101000a900473ffffffffffffffffffffffffffffffffffffffff1681565b60068181548110611b3c57600080fd5b906000526020600020016000915054906101000a900473ffffffffffffffffffffffffffffffffffffffff1681565b600080611b7733611f7d565b611bb6576040517f08c379a0000000000000000000000000000000000000000000000000000000008152600401611bad906139cc565b60405180910390fd5b611bbf33612396565b915091509091565b600080611bd333611f7d565b611c12576040517f08c379a0000000000000000000000000000000000000000000000000000000008152600401611c09906139cc565b60405180910390fd5b600a805490508310611c59576040517f08c379a0000000000000000000000000000000000000000000000000000000008152600401611c50906137f0565b60405180910390fd5b6000600b60003373ffffffffffffffffffffffffffffffffffffffff1673ffffffffffffffffffffffffffffffffffffffff16815260200190815260200160002060008581526020019081526020016000206040518060400160405290816000820160009054906101000a900460ff166002811115611cdb57611cda612b91565b5b6002811115611ced57611cec612b91565b5b81526020016001820154815250509050806000015192508060200151915050915091565b600160009054906101000a900473ffffffffffffffffffffffffffffffffffffffff1673ffffffffffffffffffffffffffffffffffffffff163373ffffffffffffffffffffffffffffffffffffffff1614611da1576040517f08c379a0000000000000000000000000000000000000000000000000000000008152600401611d989061353c565b60405180910390fd5b600460149054906101000a900460ff1615611df1576040517f08c379a0000000000000000000000000000000000000000000000000000000008152600401611de8906130fd565b60405180910390fd5b80600460006101000a81548173ffffffffffffffffffffffffffffffffffffffff021916908373ffffffffffffffffffffffffffffffffffffffff16021790555050565b600460009054906101000a900473ffffffffffffffffffffffffffffffffffffffff1673ffffffffffffffffffffffffffffffffffffffff163373ffffffffffffffffffffffffffffffffffffffff1614611ec5576040517f08c379a0000000000000000000000000000000000000000000000000000000008152600401611ebc9061306b565b60405180910390fd5b6001600460146101000a81548160ff021916908315150217905550565b60038054611eef906131de565b80601f0160208091040260200160405190810160405280929190818152602001828054611f1b906131de565b8015611f685780601f10611f3d57610100808354040283529160200191611f68565b820191906000526020600020905b815481529060010190602001808311611f4b57829003601f168201915b505050505081565b6000600680549050905090565b600080600760008473ffffffffffffffffffffffffffffffffffffffff1673ffffffffffffffffffffffffffffffffffffffff1681526020019081526020016000206000018054611fcd906131de565b80601f0160208091040260200160405190810160405280929190818152602001828054611ff9906131de565b80156120465780601f1061201b57610100808354040283529160200191612046565b820191906000526020600020905b81548152906001019060200180831161202957829003601f168201915b50505050509050600081511415915050919050565b61206433611f7d565b156120a4576040517f08c379a000000000000000000000000000000000000000000000000000000000815260040161209b9061393a565b60405180910390fd5b600460149054906101000a900460ff16156120f4576040517f08c379a00000000000000000000000000000000000000000000000000000000081526004016120eb906130fd565b60405180910390fd5b6000835103612138576040517f08c379a000000000000000000000000000000000000000000000000000000000815260040161212f90613b1f565b60405180910390fd5b600082510361217c576040517f08c379a000000000000000000000000000000000000000000000000000000000815260040161217390613b8b565b60405180910390fd5b600073ffffffffffffffffffffffffffffffffffffffff166008836040516121a49190613be7565b908152602001604051809103902060009054906101000a900473ffffffffffffffffffffffffffffffffffffffff1673ffffffffffffffffffffffffffffffffffffffff161461222b57816040517f96ac92d10000000000000000000000000000000000000000000000000000000081526004016122229190612e92565b60405180910390fd5b6000604051806060016040528085815260200184815260200183815250905080600760008773ffffffffffffffffffffffffffffffffffffffff1673ffffffffffffffffffffffffffffffffffffffff168152602001908152602001600020600082015181600001908161229f91906133bb565b5060208201518160010190816122b591906133bb565b5060408201518160020190816122cb91906133bb565b50905050846008846040516122e09190613be7565b908152602001604051809103902060006101000a81548173ffffffffffffffffffffffffffffffffffffffff021916908373ffffffffffffffffffffffffffffffffffffffff1602179055506009859080600181540180825580915050600190039060005260206000200160009091909190916101000a81548173ffffffffffffffffffffffffffffffffffffffff021916908373ffffffffffffffffffffffffffffffffffffffff1602179055505050505050565b6000806001915060005b600a805490508110156124ee57600060028111156123c1576123c0612b91565b5b600b60008673ffffffffffffffffffffffffffffffffffffffff1673ffffffffffffffffffffffffffffffffffffffff168152602001908152602001600020600083815260200190815260200160002060000160009054906101000a900460ff16600281111561243457612433612b91565b5b03612446576000809250925050612693565b60028081111561245957612458612b91565b5b600b60008673ffffffffffffffffffffffffffffffffffffffff1673ffffffffffffffffffffffffffffffffffffffff168152602001908152602001600020600083815260200190815260200160002060000160009054906101000a900460ff1660028111156124cc576124cb612b91565b5b036124da57600292506124db565b5b80806124e690613bfe565b9150506123a0565b506001600281111561250357612502612b91565b5b82600281111561251657612515612b91565b5b036125275781600091509150612693565b60008060005b600a8054905081101561266f57600a818154811061254e5761254d613aa4565b5b906000526020600020906004020160030154600b60008873ffffffffffffffffffffffffffffffffffffffff1673ffffffffffffffffffffffffffffffffffffffff16815260200190815260200160002060008381526020019081526020016000206001015410156125bf57600192505b6064600a82815481106125d5576125d4613aa4565b5b906000526020600020906004020160020154600b60008973ffffffffffffffffffffffffffffffffffffffff1673ffffffffffffffffffffffffffffffffffffffff1681526020019081526020016000206000848152602001908152602001600020600101546126459190613c46565b61264f9190613cb7565b8261265a9190613ce8565b9150808061266790613bfe565b91505061252d565b5081801561267e57506101f381115b15612689576101f390505b6002935080925050505b915091565b5080546126a4906131de565b6000825580601f106126b657506126d5565b601f0160209004906000526020600020908101906126d491906126d8565b5b50565b5b808211156126f15760008160009055506001016126d9565b5090565b600082825260208201905092915050565b7f4e6f207365207065726d697465206c6120726563696f6e2064652064696e657260008201527f6f2e000000000000000000000000000000000000000000000000000000000000602082015250565b60006127626022836126f5565b915061276d82612706565b604082019050919050565b6000602082019050818103600083015261279181612755565b9050919050565b6000604051905090565b600080fd5b600080fd5b600080fd5b600080fd5b6000601f19601f8301169050919050565b7f4e487b7100000000000000000000000000000000000000000000000000000000600052604160045260246000fd5b6127ff826127b6565b810181811067ffffffffffffffff8211171561281e5761281d6127c7565b5b80604052505050565b6000612831612798565b905061283d82826127f6565b919050565b600067ffffffffffffffff82111561285d5761285c6127c7565b5b612866826127b6565b9050602081019050919050565b82818337600083830152505050565b600061289561289084612842565b612827565b9050828152602081018484840111156128b1576128b06127b1565b5b6128bc848285612873565b509392505050565b600082601f8301126128d9576128d86127ac565b5b81356128e9848260208601612882565b91505092915050565b6000819050919050565b612905816128f2565b811461291057600080fd5b50565b600081359050612922816128fc565b92915050565b60008060008060808587031215612942576129416127a2565b5b600085013567ffffffffffffffff8111156129605761295f6127a7565b5b61296c878288016128c4565b945050602061297d87828801612913565b935050604061298e87828801612913565b925050606061299f87828801612913565b91505092959194509250565b6129b4816128f2565b82525050565b60006020820190506129cf60008301846129ab565b92915050565b600073ffffffffffffffffffffffffffffffffffffffff82169050919050565b6000612a00826129d5565b9050919050565b612a10816129f5565b8114612a1b57600080fd5b50565b600081359050612a2d81612a07565b92915050565b60008060408385031215612a4a57612a496127a2565b5b6000612a5885828601612a1e565b925050602083013567ffffffffffffffff811115612a7957612a786127a7565b5b612a85858286016128c4565b9150509250929050565b60008115159050919050565b612aa481612a8f565b82525050565b6000602082019050612abf6000830184612a9b565b92915050565b60038110612ad257600080fd5b50565b600081359050612ae481612ac5565b92915050565b60008060008060808587031215612b0457612b036127a2565b5b6000612b1287828801612a1e565b9450506020612b2387828801612913565b9350506040612b3487828801612ad5565b9250506060612b4587828801612913565b91505092959194509250565b60008060408385031215612b6857612b676127a2565b5b6000612b7685828601612a1e565b9250506020612b8785828601612913565b9150509250929050565b7f4e487b7100000000000000000000000000000000000000000000000000000000600052602160045260246000fd5b60038110612bd157612bd0612b91565b5b50565b6000819050612be282612bc0565b919050565b6000612bf282612bd4565b9050919050565b612c0281612be7565b82525050565b6000604082019050612c1d6000830185612bf9565b612c2a60208301846129ab565b9392505050565b600060208284031215612c4757612c466127a2565b5b6000612c5584828501612913565b91505092915050565b600081519050919050565b60005b83811015612c87578082015181840152602081019050612c6c565b60008484015250505050565b6000612c9e82612c5e565b612ca881856126f5565b9350612cb8818560208601612c69565b612cc1816127b6565b840191505092915050565b60006080820190508181036000830152612ce68187612c93565b9050612cf560208301866129ab565b612d0260408301856129ab565b612d0f60608301846129ab565b95945050505050565b60008060008060808587031215612d3257612d316127a2565b5b6000612d4087828801612a1e565b945050602085013567ffffffffffffffff811115612d6157612d606127a7565b5b612d6d878288016128c4565b935050604085013567ffffffffffffffff811115612d8e57612d8d6127a7565b5b612d9a878288016128c4565b925050606085013567ffffffffffffffff811115612dbb57612dba6127a7565b5b612dc7878288016128c4565b91505092959194509250565b600060208284031215612de957612de86127a2565b5b600082013567ffffffffffffffff811115612e0757612e066127a7565b5b612e13848285016128c4565b91505092915050565b612e25816129f5565b82525050565b6000602082019050612e406000830184612e1c565b92915050565b60006060820190508181036000830152612e608186612c93565b90508181036020830152612e748185612c93565b90508181036040830152612e888184612c93565b9050949350505050565b60006020820190508181036000830152612eac8184612c93565b905092915050565b600060208284031215612eca57612ec96127a2565b5b6000612ed884828501612a1e565b91505092915050565b600080600060608486031215612efa57612ef96127a2565b5b600084013567ffffffffffffffff811115612f1857612f176127a7565b5b612f24868287016128c4565b935050602084013567ffffffffffffffff811115612f4557612f446127a7565b5b612f51868287016128c4565b925050604084013567ffffffffffffffff811115612f7257612f716127a7565b5b612f7e868287016128c4565b9150509250925092565b600080600080600060a08688031215612fa457612fa36127a2565b5b6000612fb288828901612913565b955050602086013567ffffffffffffffff811115612fd357612fd26127a7565b5b612fdf888289016128c4565b9450506040612ff088828901612913565b935050606061300188828901612913565b925050608061301288828901612913565b9150509295509295909350565b7f536f6c6f207065726d697469646f20616c20636f6f7264696e61646f72000000600082015250565b6000613055601d836126f5565b91506130608261301f565b602082019050919050565b6000602082019050818103600083015261308481613048565b9050919050565b7f536f6c6f207065726d697469646f207369206c6120617369676e61747572612060008201527f6e6f206573746120636572726164610000000000000000000000000000000000602082015250565b60006130e7602f836126f5565b91506130f28261308b565b604082019050919050565b60006020820190508181036000830152613116816130da565b9050919050565b7f456c206e6f6d627265206465206c61206576616c756163696f6e206e6f20707560008201527f6564652073657220766163696f00000000000000000000000000000000000000602082015250565b6000613179602d836126f5565b91506131848261311d565b604082019050919050565b600060208201905081810360008301526131a88161316c565b9050919050565b7f4e487b7100000000000000000000000000000000000000000000000000000000600052602260045260246000fd5b600060028204905060018216806131f657607f821691505b602082108103613209576132086131af565b5b50919050565b60008190508160005260206000209050919050565b60006020601f8301049050919050565b600082821b905092915050565b6000600883026132717fffffffffffffffffffffffffffffffffffffffffffffffffffffffffffffffff82613234565b61327b8683613234565b95508019841693508086168417925050509392505050565b6000819050919050565b60006132b86132b36132ae846128f2565b613293565b6128f2565b9050919050565b6000819050919050565b6132d28361329d565b6132e66132de826132bf565b848454613241565b825550505050565b600090565b6132fb6132ee565b6133068184846132c9565b505050565b5b8181101561332a5761331f6000826132f3565b60018101905061330c565b5050565b601f82111561336f576133408161320f565b61334984613224565b81016020851015613358578190505b61336c61336485613224565b83018261330b565b50505b505050565b600082821c905092915050565b600061339260001984600802613374565b1980831691505092915050565b60006133ab8383613381565b9150826002028217905092915050565b6133c482612c5e565b67ffffffffffffffff8111156133dd576133dc6127c7565b5b6133e782546131de565b6133f282828561332e565b600060209050601f8311600181146134255760008415613413578287015190505b61341d858261339f565b865550613485565b601f1984166134338661320f565b60005b8281101561345b57848901518255600182019150602085019450602081019050613436565b868310156134785784890151613474601f891682613381565b8355505b6001600288020188555050505b505050505050565b7f4e487b7100000000000000000000000000000000000000000000000000000000600052601160045260246000fd5b60006134c7826128f2565b91506134d2836128f2565b92508282039050818111156134ea576134e961348d565b5b92915050565b7f536f6c6f207065726d697469646f20616c206f776e6572000000000000000000600082015250565b60006135266017836126f5565b9150613531826134f0565b602082019050919050565b6000602082019050818103600083015261355581613519565b9050919050565b7f4573652070726f6665736f72207961206861207369646f20616464656420636f60008201527f6d6f2070726f6665736f72000000000000000000000000000000000000000000602082015250565b60006135b8602b836126f5565b91506135c38261355c565b604082019050919050565b600060208201905081810360008301526135e7816135ab565b9050919050565b7f456c206e6f6d6272652064656c2070726f6665736f72206e6f2070756564652060008201527f73657220766163696f0000000000000000000000000000000000000000000000602082015250565b600061364a6029836126f5565b9150613655826135ee565b604082019050919050565b600060208201905081810360008301526136798161363d565b9050919050565b7f536f6c6f207065726d697469646f206120756e2070726f6665736f7200000000600082015250565b60006136b6601c836126f5565b91506136c182613680565b602082019050919050565b600060208201905081810360008301526136e5816136a9565b9050919050565b7f536f6c6f2073652070756564652063616c696669636172206120756e20616c7560008201527f6d6e6f206d6174726963756c61646f2e00000000000000000000000000000000602082015250565b60006137486030836126f5565b9150613753826136ec565b604082019050919050565b600060208201905081810360008301526137778161373b565b9050919050565b7f4e6f2073652070756564652063616c69666963617220756e61206576616c756160008201527f63696f6e20717565206e6f206578697374650000000000000000000000000000602082015250565b60006137da6032836126f5565b91506137e58261377e565b604082019050919050565b60006020820190508181036000830152613809816137cd565b9050919050565b7f4e6f2073652070756564652063616c69666963617220636f6e20756e61206e6f60008201527f7461207375706572696f722061206c61206d6178696d61207065726d6974696460208201527f6100000000000000000000000000000000000000000000000000000000000000604082015250565b60006138926041836126f5565b915061389d82613810565b606082019050919050565b600060208201905081810360008301526138c181613885565b9050919050565b7f536f6c6f207065726d697469646f206120616c756d6e6f73206e6f206d61747260008201527f6963756c61646f73000000000000000000000000000000000000000000000000602082015250565b60006139246028836126f5565b915061392f826138c8565b604082019050919050565b6000602082019050818103600083015261395381613917565b9050919050565b7f536f6c6f207065726d697469646f206120616c756d6e6f73206d61747269637560008201527f6c61646f73000000000000000000000000000000000000000000000000000000602082015250565b60006139b66025836126f5565b91506139c18261395a565b604082019050919050565b600060208201905081810360008301526139e5816139a9565b9050919050565b7f456c206964656e746966696361646f72206e6f20707565646520736572206d6160008201527f796f7220717565206c612063616e7469646164206465206576616c756163696f60208201527f6e65730000000000000000000000000000000000000000000000000000000000604082015250565b6000613a6e6043836126f5565b9150613a79826139ec565b606082019050919050565b60006020820190508181036000830152613a9d81613a61565b9050919050565b7f4e487b7100000000000000000000000000000000000000000000000000000000600052603260045260246000fd5b7f456c206e6f6d627265206e6f2070756564652073657220766163696f00000000600082015250565b6000613b09601c836126f5565b9150613b1482613ad3565b602082019050919050565b60006020820190508181036000830152613b3881613afc565b9050919050565b7f456c20444e49206e6f2070756564652073657220766163696f00000000000000600082015250565b6000613b756019836126f5565b9150613b8082613b3f565b602082019050919050565b60006020820190508181036000830152613ba481613b68565b9050919050565b600081905092915050565b6000613bc182612c5e565b613bcb8185613bab565b9350613bdb818560208601612c69565b80840191505092915050565b6000613bf38284613bb6565b915081905092915050565b6000613c09826128f2565b91507fffffffffffffffffffffffffffffffffffffffffffffffffffffffffffffffff8203613c3b57613c3a61348d565b5b600182019050919050565b6000613c51826128f2565b9150613c5c836128f2565b9250828202613c6a816128f2565b91508282048414831517613c8157613c8061348d565b5b5092915050565b7f4e487b7100000000000000000000000000000000000000000000000000000000600052601260045260246000fd5b6000613cc2826128f2565b9150613ccd836128f2565b925082613cdd57613cdc613c88565b5b828204905092915050565b6000613cf3826128f2565b9150613cfe836128f2565b9250828201905080821115613d1657613d1561348d565b5b9291505056fea2646970667358221220adc93e12818e8030a48920fdc869db7ef695225ce88283e6e9b07344e70966fd64736f6c63430008110033",
  "immutableReferences": {},
  "source": "// SPDX-License-Identifier: UNLICENSED\r\npragma solidity ^0.8.0;\r\n\r\ncontract Asignatura{\r\n\r\n/// Version 2022 Full  Practicas\r\nstring public version = \"2022 Full\";\r\n\r\n/**\r\n* address del usuario que ha desplegado el con\r\n* El contrato lo despliega el owner.\r\n */\r\naddress public owner;\r\n\r\n/// Nombre de la asignatura\r\nstring public nombre;\r\n\r\n/// Curso academico\r\nstring public curso;\r\n\r\n/// Coordinador de la asignatura\r\naddress public coordinador;\r\n\r\n/// Estado de la asignatura\r\nbool public cerrada;\r\n\r\n/// Acceder al nombre de un profesor dada su direccin\r\nmapping (address => string) public datosProfesor;\r\n\r\n/// Array con las direcciones de los profesores aadidos.\r\naddress[] public profesores;\r\n\r\n/// Datos de un alumno.\r\nstruct DatosAlumno {\r\nstring nombre;\r\nstring dni;\r\nstring email;\r\n}\r\n\r\n/// Acceder a los datos de un alumno dada su direccion.\r\nmapping (address => DatosAlumno) public datosAlumno;\r\n\r\n/**\r\n* Valores de DNI usados.\r\n* Clave: el DNI.\r\n* Valor: direccion del alumno con ese DNI.\r\n*/\r\nmapping (string => address) public dniUsados;\r\n\r\n// Array con las direcciones de los alumnos matriculados.\r\naddress[] public matriculas;\r\n\r\n/**\r\n* Datos de una evaluacion.\r\n*/\r\n\r\nstruct Evaluacion {\r\n  string nombre;\r\n  uint fecha;\r\n  uint porcentaje;\r\n  uint minimo;\r\n}\r\n\r\n/// Evaluaciones de la asignatura.\r\nEvaluacion[] public evaluaciones;\r\n\r\n/// Tipos de notas: sin usar, no presentado, y nota normal entre 0 y 1000/\r\nenum TipoNota { Empty, NP, Normal }\r\n\r\n/**\r\n* Datos de una nota.\r\n* La calificacion esta multiplicada por 100 porque no hay decimales.\r\n*/\r\n\r\nstruct Nota {\r\n    TipoNota tipo;\r\n    uint calificacion;\r\n}\r\n\r\n// Dada la direccion de un alumno, y el indice de la evaluacion, devuelve la nota del alumno.\r\nmapping (address => mapping (uint => Nota)) public calificaciones;\r\n\r\n\r\n/// Error usado para indicar que un DNI esta duplic\r\nerror DNIDuplicadoError(string dni);\r\n\r\n/** \r\n* Constructor.\r\n*\r\n* @param _nombre Nombre de la asignatura.\r\n* @param _curso Curso academco.\r\n*/ \r\nconstructor(string memory _nombre, string memory _curso) {\r\nrequire(bytes(_nombre).length != 0, \"El nombre de la asignatura no puede ser vacio\"); \r\nrequire(bytes(_curso).length != 0, \"El curso academico de la asignatura no puede ser vacio\"); \r\n\r\nowner = msg.sender; \r\nnombre = _nombre;\r\ncurso = _curso;\r\n}\r\n/**\r\n* Asignar la direccion del usuario coordinador.\r\n*\r\n* @param addr Direccion del usuario coordinador.\r\n*/  \r\nfunction setCoordinador(address addr) soloOwner soloAbierta public{\r\n    coordinador = addr;\r\n}\r\n /**\r\n  * Cerrar la asignatura.\r\n  */\r\nfunction cerrar() soloCoordinador public{\r\n    cerrada = true;\r\n}\r\n\r\n/**\r\n * Aadir un profesor nuevo.\r\n * \r\n * Impedir que se pueda meter un nombre vacio.\r\n * \r\n * @param _addr Direccion del profesor.\r\n * @param _nombre El nombre del profesor.\r\n */\r\nfunction addProfesor(address _addr, string memory _nombre) soloOwner soloAbierta public {\r\n    require(bytes(datosProfesor[_addr]).length == 0, \"Ese profesor ya ha sido added como profesor\");\r\n    require(bytes(_nombre).length !=0, \"El nombre del profesor no puede ser vacio\");\r\n    \r\n    datosProfesor[_addr] = _nombre;\r\n    profesores.push(_addr);\r\n\r\n}\r\n\r\n/**\r\n * El numero de profesores aadidos.\r\n * \r\n * @return El nnumero de profesores aadidos.\r\n */\r\nfunction profesoresLength() public view returns(uint){\r\n    return profesores.length;\r\n}\r\n\r\n/**\r\n * Los alumnos pueden automatricularse con el metodo automatricula.\r\n * \r\n * Impedir que se pueda meter un nombre o un DNI vacios.\r\n * \r\n * El valor del DNI debe ser unico.\r\n * \r\n * @param _nombre El nombre del alumno.\r\n * @param _dni    El DNI del alumno.\r\n * @param _email  El email del alumno\r\n */\r\nfunction automatricula(string memory _nombre, string memory _dni, string memory _email) soloNoMatriculados soloAbierta public{\r\n    _matricular(msg.sender, _nombre, _dni, _email);\r\n}\r\n\r\n/**\r\n*El owner puede matricular alumnos.\r\n*\r\n*Impedir que se pueda meter un nombre o un DNI vacios.\r\n*\r\n*El valor del DNI debe ser unico.\r\n*\r\n*@param _addr  La address del alumno.\r\n*@param _nombre  El nombre del alumno.\r\n*@param _dni  El DNI del alumno.\r\n*@param _email  El email del alumno.\r\n*/\r\n\r\nfunction matricular(address _addr, string memory _nombre, string memory _dni,\r\nstring memory _email) soloOwner soloNoMatriculados soloAbierta public {\r\n_matricular(_addr, _nombre, _dni, _email);\r\n}\r\n\r\nfunction _matricular(address _addr, string memory _nombre, string memory _dni, string memory _email) soloNoMatriculados soloAbierta private {\r\n  require(bytes(_nombre).length != 0, \"El nombre no puede ser vacio\");\r\n  require(bytes(_dni).length !=0, \"El DNI no puede ser vacio\");\r\n  \r\n  if (dniUsados[_dni] != address(0x0)){\r\n       revert DNIDuplicadoError({dni: _dni});\r\n  }\r\n\r\n  DatosAlumno memory datos = DatosAlumno(_nombre, _dni, _email);\r\n\r\n  datosAlumno[_addr] = datos;\r\n\r\n  dniUsados[_dni] =_addr;\r\n\r\n  matriculas.push(_addr);\r\n}\r\n\r\n/**\r\n * El nmero de alumnos matriculados.\r\n * \r\n * @return El numero de alumnos matriculados\r\n */\r\n\r\nfunction matriculasLength() public view returns(uint) {\r\n   return matriculas.length;\r\n\r\n}\r\n\r\n\r\n/**\r\n * Permite a un alumno obtener sus propios datos.\r\n * \r\n * @return _nombre El nombre del alumno que invoca el mtodo.\r\n * @return _dni El DNI del alumno que invoca el metodo.\r\n * @return _email El email del alumno que invoca el metodo\r\n */\r\n\r\nfunction quienSoy() soloMatriculados public view returns (string memory _nombre, string memory _dni, string memory _email){\r\n    DatosAlumno memory datos = datosAlumno[msg.sender];\r\n    _nombre =datos.nombre;\r\n    _dni = datos.dni;\r\n    _email = datos.email;\r\n}\r\n\r\n/**\r\n * Crear una prueba de evaluacin de la asignatura. Por ejemplo, el primer parcial, o la practica 3.\r\n * \r\n * Las evaluaciones se meteran en el array evaluaciones, y nos referimos a ellas por su posicion en el array,\r\n * \r\n * @param _nombre El nombre de la evaluacin.\r\n * @param _fecha La fecha de evaluacion (segundos desde el 1/1/1970)\r\n * @param _porcentaje El porcentaje de puntos que proporciona a la nota final.\r\n * @param _minimo La nota minima necesaria para aprobar. (Multiplicado por 100\r\n * para soportar dos decimales)\r\n * @return La posicion en el array evaluaciones,\r\n */\r\n\r\nfunction creaEvaluacion(string memory _nombre, uint _fecha, uint _porcentaje, uint _minimo) soloCoordinador soloAbierta public returns(uint){\r\n    require(bytes(_nombre).length !=0, \"El nombre de la evaluacion no puede ser vacio\");\r\n\r\n    evaluaciones.push(Evaluacion(_nombre, _fecha, _porcentaje, _minimo));\r\n    return evaluaciones.length -1;\r\n}\r\n\r\n/**\r\n * Modificar una prueba de evaluacin de la asignatura. Por ejemplo, el primer parcial, o la practica 3.\r\n * \r\n * Las evaluaciones se meteran en el array evaluaciones, y nos referimos a ellas por su posicion en el array,\r\n * \r\n * @param _id La posicin en el array de evaluaciones.\r\n * @param _nombre El nombre de la evaluacin.\r\n * @param _fecha La fecha de evaluacion (segundos desde el 1/1/1970)\r\n * @param _porcentaje El porcentaje de puntos que proporciona a la nota final.\r\n * @param _minimo La nota minima necesaria para aprobar. (Multiplicado por 100\r\n * para soportar dos decimales)\r\n */\r\n\r\nfunction modificaEvaluacion(uint _id, string memory _nombre, uint _fecha, uint _porcentaje, uint _minimo) soloCoordinador soloAbierta public{\r\n    require(bytes(_nombre).length !=0, \"El nombre de la evaluacion no puede ser vacio\");\r\n    require(_id < evaluaciones.length, \"El identificador no puede ser mayor que la cantidad de evaluaciones\");\r\n\r\n    delete evaluaciones[_id];\r\n    Evaluacion memory newEv = Evaluacion(_nombre, _fecha, _porcentaje, _minimo);\r\n    evaluaciones[_id] = newEv;\r\n}\r\n\r\n/**\r\n * El numero de evaluaciones creadas.\r\n * \r\n * @return El numero de evaluaciones creadas.\r\n */\r\n\r\nfunction evaluacionesLength() public view returns(uint){\r\n    return evaluaciones.length;\r\n}\r\n\r\n/**\r\n * Poner la nota de un alumno en una evaluacion.\r\n * \r\n * @param alumno        La direcccion de un alumno\r\n * @param evaluacion    El indice de una evaluacion en el array evaluaciones.\r\n * @param tipo          Tipo de nota\r\n * @param calificacion  La calificacion, multiplicada por 100 porque no hay decimales.\r\n */\r\n\r\nfunction califica(address alumno, uint evaluacion, TipoNota tipo, uint calificacion) soloProfesor soloAbierta public{\r\n    require(estaMatriculado(alumno),\"Solo se puede calificar a un alumno matriculado.\");\r\n    require(evaluacion < evaluaciones.length,\"No se puede calificar una evaluacion que no existe\");\r\n    require(calificacion <= 1000, \"No se puede calificar con una nota superior a la maxima permitida\");\r\n\r\n    Nota memory nota = Nota(tipo, calificacion);\r\n\r\n    calificaciones[alumno][evaluacion] = nota;\r\n}\r\n/**\r\n * Devuelve el tipo de nota y la calificacion que ha sacado el alumno que invoca el metodo en la evaluacion pasada como parametro.\r\n * \r\n * @param evaluacion    El indice de una evaluacion en el array evaluaciones.\r\n * \r\n * @return tipo          Tipo de nota que ha obtenido el alumno.\r\n * @return calificacion  La calificacion que ha obtenido el alumno.\r\n */\r\n\r\nfunction miNota(uint evaluacion) soloMatriculados public view returns (TipoNota tipo, uint calificacion){\r\n    require(evaluacion < evaluaciones.length,\"No se puede calificar una evaluacion que no existe\");\r\n    \r\n    Nota memory nota = calificaciones[msg.sender][evaluacion];\r\n    \r\n    tipo = nota.tipo;\r\n    calificacion = nota.calificacion;\r\n}\r\n\r\n/**\r\n * Devuelve la nota final del alumno que llama a este metodo.\r\n * \r\n * Si el tipo de nota de alguna de las evaluaciones es Empty, es decir, aun no ha asignado una calificacion, entonces este metodo devuelve (Empty,0).\r\n * Si todas las calificaciones son NP, devuelve (NP,0).\r\n * En otro caso devuelve la nota final aplicando los porcentajes adecuados.\r\n * Si la nota final es superior a 499 y hay alguna evaluacion NP, entonces devuelve como mximo 499.\r\n * \r\n * @return tipo          Tipo de nota que ha obtenido el alumno\r\n * @return calificacion  La calificacion que ha obtenido el alumno.\r\n */\r\n\r\nfunction miNotaFinal() soloMatriculados public view returns (TipoNota tipo, uint calificacion){\r\n    return _notaFinal(msg.sender);\r\n}\r\n\r\n/**\r\n * Devuelve la nota final del alumno indicado.\r\n * \r\n * @param _addr La address del alumno.\r\n * \r\n * @return tipo          Tipo de nota que ha obtenido el alumno\r\n * @return calificacion  La calificacion que ha obtenido el alumno.\r\n */\r\nfunction notaFinal(address _addr) soloCoordinador public view returns (TipoNota tipo, uint calificacion){\r\n    return _notaFinal(_addr);\r\n}\r\n\r\nfunction _notaFinal(address _addr) private view returns (TipoNota tipo, uint calificacion){\r\n    tipo =TipoNota.NP;\r\n\r\n    for(uint i =0; i < evaluaciones.length; i++){\r\n        if(calificaciones[_addr][i].tipo == TipoNota.Empty) {\r\n            return(TipoNota.Empty,0);\r\n        }\r\n        if(calificaciones[_addr][i].tipo == TipoNota.Normal){\r\n            tipo = TipoNota.Normal;\r\n            continue;\r\n        }\r\n    }\r\n\r\n    if(tipo == TipoNota.NP){\r\n        return(tipo,0);\r\n    }\r\n    bool suspenso = false;\r\n    uint nota = 0;\r\n\r\n    for (uint i= 0; i < evaluaciones.length; i++){\r\n        if(calificaciones[_addr][i].calificacion < evaluaciones[i].minimo){\r\n            suspenso = true;\r\n        }\r\n\r\n        nota += calificaciones[_addr][i].calificacion*evaluaciones[i].porcentaje /100;\r\n    }\r\n\r\n    if(suspenso && nota > 499){\r\n       nota = 499;\r\n    }\r\n    \r\n    tipo = TipoNota.Normal;\r\n    calificacion = nota;\r\n\r\n}\r\n\r\n/**\r\n * Consulta si una direciion pertenece a un alumno matriculado.\r\n * \r\n * @param alumno La direccion de un alumno\r\n * \r\n * @return true si es un alumno matriculado\r\n */\r\n\r\nfunction estaMatriculado(address alumno) private view returns (bool) {\r\n    string memory _nombre = datosAlumno[alumno].nombre;\r\n\r\n    return bytes(_nombre).length != 0;\r\n}\r\n\r\n/**\r\n * Modificador para que una funcion solo la pueda ejecutar el owner.\r\n * \r\n * Se usa en setCoordinador y addProfesor.\r\n * \r\n */\r\n\r\nmodifier soloOwner(){\r\n    require(msg.sender == owner, \"Solo permitido al owner\");\r\n    _;\r\n}\r\n\r\n/**\r\n * Modificador para que una funcion solo la pueda ejecutar el coordinador.\r\n * \r\n * Se usa en cerrar y creaEvaluacion.\r\n * \r\n */\r\n\r\nmodifier soloCoordinador(){\r\n    require(msg.sender == coordinador, \"Solo permitido al coordinador\");\r\n    _;\r\n}\r\n\r\n/**\r\n * Modificador para que una funcion solo la pueda ejecutar el profesor.\r\n * \r\n * Se usa en califica.\r\n * \r\n */\r\nmodifier soloProfesor(){\r\n    string memory _nombre = datosProfesor[msg.sender];\r\n    require(bytes(_nombre).length !=0, \"Solo permitido a un profesor\");\r\n     _;\r\n}\r\n\r\n/**\r\n * Modificador para que una funcion solo la pueda ejecutar un alumno matriculado.\r\n * \r\n */\r\nmodifier soloMatriculados(){\r\n    require(estaMatriculado(msg.sender), \"Solo permitido a alumnos matriculados\");\r\n    _;\r\n}\r\n\r\n/**\r\n * Modificador para que una funcion solo la pueda ejecutar un alumno no matriculado aun.\r\n * \r\n */\r\nmodifier soloNoMatriculados(){\r\n    require(!estaMatriculado(msg.sender), \"Solo permitido a alumnos no matriculados\");\r\n    _;\r\n}\r\n\r\n/**\r\n * Modificador para que una funcion solo la pueda ejecutar si la asignatura no esta cerrada.\r\n * \r\n * Se usa en setCoordinador, addProfesor, automatricula, creaEvaluacion y califica.\r\n * \r\n */\r\nmodifier soloAbierta(){\r\n    require(!cerrada,\"Solo permitido si la asignatura no esta cerrada\");\r\n    _;\r\n}\r\n\r\n/**\r\n * No se permite la recepcion de dinero.\r\n */\r\nreceive() external payable{\r\n    revert(\"No se permite la recion de dinero.\");\r\n}\r\n}",
  "sourcePath": "C:\\Users\\Patricia\\OneDrive\\Escritorio\\UPM\\Master\\BCDA\\P7\\Asignatura\\truffle\\contracts\\Asignatura.sol",
  "compiler": {
    "name": "solc",
    "version": "0.8.17+commit.8df45f5f.Emscripten.clang"
  },
  "schemaVersion": "3.4.10",
  "updatedAt": "2023-01-05T13:28:32.317Z",
  "networkType": "ethereum",
  "devdoc": {
    "kind": "dev",
    "methods": {
      "addProfesor(address,string)": {
        "params": {
          "_addr": "Direccion del profesor.",
          "_nombre": "El nombre del profesor."
        }
      },
      "automatricula(string,string,string)": {
        "params": {
          "_dni": "El DNI del alumno.",
          "_email": "El email del alumno",
          "_nombre": "El nombre del alumno."
        }
      },
      "califica(address,uint256,uint8,uint256)": {
        "params": {
          "alumno": "La direcccion de un alumno",
          "calificacion": "La calificacion, multiplicada por 100 porque no hay decimales.",
          "evaluacion": "El indice de una evaluacion en el array evaluaciones.",
          "tipo": "Tipo de nota"
        }
      },
      "constructor": {
        "params": {
          "_curso": "Curso academco.",
          "_nombre": "Nombre de la asignatura."
        }
      },
      "creaEvaluacion(string,uint256,uint256,uint256)": {
        "params": {
          "_fecha": "La fecha de evaluacion (segundos desde el 1/1/1970)",
          "_minimo": "La nota minima necesaria para aprobar. (Multiplicado por 100 para soportar dos decimales)",
          "_nombre": "El nombre de la evaluacin.",
          "_porcentaje": "El porcentaje de puntos que proporciona a la nota final."
        },
        "returns": {
          "_0": "La posicion en el array evaluaciones,"
        }
      },
      "evaluacionesLength()": {
        "returns": {
          "_0": "El numero de evaluaciones creadas."
        }
      },
      "matricular(address,string,string,string)": {
        "params": {
          "_addr": "La address del alumno.",
          "_dni": "El DNI del alumno.",
          "_email": "El email del alumno.",
          "_nombre": "El nombre del alumno."
        }
      },
      "matriculasLength()": {
        "returns": {
          "_0": "El numero de alumnos matriculados"
        }
      },
      "miNota(uint256)": {
        "params": {
          "evaluacion": "El indice de una evaluacion en el array evaluaciones. "
        },
        "returns": {
          "calificacion": " La calificacion que ha obtenido el alumno.",
          "tipo": "         Tipo de nota que ha obtenido el alumno."
        }
      },
      "miNotaFinal()": {
        "returns": {
          "calificacion": " La calificacion que ha obtenido el alumno.",
          "tipo": "         Tipo de nota que ha obtenido el alumno"
        }
      },
      "modificaEvaluacion(uint256,string,uint256,uint256,uint256)": {
        "params": {
          "_fecha": "La fecha de evaluacion (segundos desde el 1/1/1970)",
          "_id": "La posicin en el array de evaluaciones.",
          "_minimo": "La nota minima necesaria para aprobar. (Multiplicado por 100 para soportar dos decimales)",
          "_nombre": "El nombre de la evaluacin.",
          "_porcentaje": "El porcentaje de puntos que proporciona a la nota final."
        }
      },
      "notaFinal(address)": {
        "params": {
          "_addr": "La address del alumno. "
        },
        "returns": {
          "calificacion": " La calificacion que ha obtenido el alumno.",
          "tipo": "         Tipo de nota que ha obtenido el alumno"
        }
      },
      "profesoresLength()": {
        "returns": {
          "_0": "El nnumero de profesores aadidos."
        }
      },
      "quienSoy()": {
        "returns": {
          "_dni": "El DNI del alumno que invoca el metodo.",
          "_email": "El email del alumno que invoca el metodo",
          "_nombre": "El nombre del alumno que invoca el mtodo."
        }
      },
      "setCoordinador(address)": {
        "params": {
          "addr": "Direccion del usuario coordinador."
        }
      }
    },
    "version": 1
  },
  "userdoc": {
    "errors": {
      "DNIDuplicadoError(string)": [
        {
          "notice": "Error usado para indicar que un DNI esta duplic"
        }
      ]
    },
    "kind": "user",
    "methods": {
      "addProfesor(address,string)": {
        "notice": "Aadir un profesor nuevo.  Impedir que se pueda meter un nombre vacio. "
      },
      "automatricula(string,string,string)": {
        "notice": "Los alumnos pueden automatricularse con el metodo automatricula.  Impedir que se pueda meter un nombre o un DNI vacios.  El valor del DNI debe ser unico. "
      },
      "califica(address,uint256,uint8,uint256)": {
        "notice": "Poner la nota de un alumno en una evaluacion. "
      },
      "cerrada()": {
        "notice": "Estado de la asignatura"
      },
      "cerrar()": {
        "notice": "Cerrar la asignatura."
      },
      "constructor": {
        "notice": "Constructor."
      },
      "coordinador()": {
        "notice": "Coordinador de la asignatura"
      },
      "creaEvaluacion(string,uint256,uint256,uint256)": {
        "notice": "Crear una prueba de evaluacin de la asignatura. Por ejemplo, el primer parcial, o la practica 3.  Las evaluaciones se meteran en el array evaluaciones, y nos referimos a ellas por su posicion en el array, "
      },
      "curso()": {
        "notice": "Curso academico"
      },
      "datosAlumno(address)": {
        "notice": "Acceder a los datos de un alumno dada su direccion."
      },
      "datosProfesor(address)": {
        "notice": "Acceder al nombre de un profesor dada su direccin"
      },
      "dniUsados(string)": {
        "notice": "Valores de DNI usados. Clave: el DNI. Valor: direccion del alumno con ese DNI."
      },
      "evaluaciones(uint256)": {
        "notice": "Evaluaciones de la asignatura."
      },
      "evaluacionesLength()": {
        "notice": "El numero de evaluaciones creadas. "
      },
      "matricular(address,string,string,string)": {
        "notice": "El owner puede matricular alumnos. Impedir que se pueda meter un nombre o un DNI vacios. El valor del DNI debe ser unico."
      },
      "matriculasLength()": {
        "notice": "El nmero de alumnos matriculados. "
      },
      "miNota(uint256)": {
        "notice": "Devuelve el tipo de nota y la calificacion que ha sacado el alumno que invoca el metodo en la evaluacion pasada como parametro. "
      },
      "miNotaFinal()": {
        "notice": "Devuelve la nota final del alumno que llama a este metodo.  Si el tipo de nota de alguna de las evaluaciones es Empty, es decir, aun no ha asignado una calificacion, entonces este metodo devuelve (Empty,0). Si todas las calificaciones son NP, devuelve (NP,0). En otro caso devuelve la nota final aplicando los porcentajes adecuados. Si la nota final es superior a 499 y hay alguna evaluacion NP, entonces devuelve como mximo 499. "
      },
      "modificaEvaluacion(uint256,string,uint256,uint256,uint256)": {
        "notice": "Modificar una prueba de evaluacin de la asignatura. Por ejemplo, el primer parcial, o la practica 3.  Las evaluaciones se meteran en el array evaluaciones, y nos referimos a ellas por su posicion en el array, "
      },
      "nombre()": {
        "notice": "Nombre de la asignatura"
      },
      "notaFinal(address)": {
        "notice": "Devuelve la nota final del alumno indicado. "
      },
      "owner()": {
        "notice": "address del usuario que ha desplegado el con El contrato lo despliega el owner."
      },
      "profesores(uint256)": {
        "notice": "Array con las direcciones de los profesores aadidos."
      },
      "profesoresLength()": {
        "notice": "El numero de profesores aadidos. "
      },
      "quienSoy()": {
        "notice": "Permite a un alumno obtener sus propios datos. "
      },
      "setCoordinador(address)": {
        "notice": "Asignar la direccion del usuario coordinador."
      },
      "version()": {
        "notice": "Version 2022 Full  Practicas"
      }
    },
    "version": 1
  }
}